:020000040800F2
:1000000090250020450100084D0100084F0100081F
:1000100051010008530100085501000800000000CC
:100020000000000000000000000000005701000870
:1000300059010008000000005B0100085D3C000859
:100040005F0100085F0100085F0100085F01000810
:100050005F0100085F0100085F0100085F01000800
:100060005F0100085F0100085F0100085F010008F0
:100070005F0100085F0100085F0100085F010008E0
:100080005F0100085F0100085F0100085F010008D0
:100090005F0100085F0100085F0100085F010008C0
:1000A0005F0100085F0100085F0100085F010008B0
:1000B0005F010008BD3C00085F0100085F01000807
:1000C0005F0100085F0100085F0100085F01000890
:1000D0005F0100085F0100085F0100085F01000880
:1000E0005F0100085F0100085F0100085F01000870
:1000F0005F0100085F0100085F0100085F01000860
:100100005F0100085F0100085F0100085F0100084F
:100110005F0100085F0100085F0100085F0100083F
:100120005F0100085F0100085F0100085F0100082F
:10013000DFF80CD000F02AF8004800477D3E0008A8
:10014000902500200648804706480047FEE7FEE766
:10015000FEE7FEE7FEE7FEE7FEE7FEE7FEE7FEE777
:100160006D3C000831010008D2B201E000F8012B1B
:10017000491EFBD270470022F6E710B513460A4627
:1001800004461946FFF7F0FF204610BD064C074D08
:1001900006E0E06840F0010394E807009847103457
:1001A000AC42F6D3FFF7C8FFE04100080042000868
:1001B00010B582B0019000F011F9044600F00EF97C
:1001C0000199001B8842F9D302B010BD2DE9F04F10
:1001D00084B0A0F1804241F6004540F20C4340F269
:1001E000004BA2F58437C4F2010506224FF6FF7CCE
:1001F000C4F20103C4F2010B4FEAB7260190A842F2
:1002000008BF052200244FF00108C1F2100C4FF086
:10021000000A00204FF00F0E052E38BF4FEAB7221C
:100220000092029008E000BF0AF1010ABAF1100F33
:1002300004F1040400F0C4800E6808FA0AF916EA12
:10024000090FF1D04E68664510DC122E53D8DFE856
:1002500006F0330A444852525252525252525252AB
:100260005252524A4D00C86844E000BF4FF6FF703A
:10027000C1F2210086420FDC0020C1F2110086424B
:100280001AD00020C1F21200864215D00020C1F21F
:100290002100864210D02EE00020C1F222008642CA
:1002A0000AD00020C1F23100864205D00020C1F200
:1002B000320086421FD100BF8E6866B1019840F2BD
:1002C000004B012E0CBFC0F81090C0F81490C4F27F
:1002D000010B08200EE004200CE0CA6802F10800BF
:1002E00008E0002006E0CA68101D03E0CA6802F1B9
:1002F0000C0000BF02902246BAF1080F28BF203A36
:10030000019E28BF0436376802980EFA02F5AF4303
:1003100000FA02F23A433260CA79D2067FF584AF1E
:1003200041F21807C4F202073A684FF6084042F05B
:1003300001023A603A68CFF6FF7002F001020392C0
:10034000039A2AF003025A44175804F00C060EFAD6
:1003500006F5AF43009DE04605FA06F63743175011
:10036000D1F804C05FEACC32DBF8002054BF22EAA7
:10037000090642EA09065FEA8C32CBF80060DBF836
:10038000042054BF22EA090642EA09065FEACC22A9
:10039000CBF80460DBF8082054BF22EA090642EAE1
:1003A00009065FEA8C22CBF80860C4464FF00108CA
:1003B0001A6854BF22EA090642EA09061E6033E7BA
:1003C00004B0BDE8F08F0000C2685140C1607047C2
:1003D000002A08BF090401617047000040F2845000
:1003E000C2F200000068704740F28450C2F2000080
:1003F000016801310160704780B542F20000C4F22B
:100400000200016841F010010160032000F092F841
:10041000002000F005F800F019F8002080BD000071
:1004200010B5044600F0FAFA44F6D351C1F2620165
:10043000A0FB0101880901F039FC4FF0FF30214693
:10044000002200F04BF8002010BD000080B582B003
:1004500041F21800C4F20200016841F0010101609C
:10046000006800F0010001900198032000F062F89C
:100470006FF00B000021002200F030F86FF00A004E
:100480000021002200F02AF86FF00900002100226C
:1004900000F024F86FF003000021002200F01EF8A5
:1004A0004FF0FF300021002200F018F80420C4F2C1
:1004B0000100016821F0E061016002B080BD000030
:1004C00000F01F01012202FA01F14EF20012400970
:1004D000CEF2000242F820107047000010B54EF630
:1004E0000C5CCEF2000CDCF80030C3F3022E8EF070
:1004F0000704042C28BF0424BEF103034FF0FF3E81
:100500000EFA04F438BF0023A14399400EFA03F316
:100510009A43114300F1604200F00F03090102F514
:100520006442043B6344002848BF03F10C0211708D
:1005300010BD00004EF60C51CEF200010A684FF6D5
:10054000FF031A4060F30A2242F0806040F0FD7021
:10055000086070474FF4807090FAA0F00021B0FA64
:1005600080F0C4F20E21012241F8202070470000E3
:1005700080B5411E0F294FF000003FD8DFE801F0A1
:100580000C293E083E3E3E083E3E3E3E3E3E3E3F3D
:10059000BDE8804000F050BB41F20400C4F202000C
:1005A000C16940F202320A40B2F5817F04BF4FF4C4
:1005B000004080BD01F44071B1F5407F5DD0B1F5E0
:1005C000007F61D1006A800744BF49F6404080BD8A
:1005D0005AE000F0D3FA41F20401C4F202010968C2
:1005E0004FF4804292FAA2F201F44041B2FA82F250
:1005F000D140022202EB4101B0FBF1F080BD41F29B
:100600000401C4F202010A6851F8040CC0015CBF85
:10061000002080BD4FF4701393FAA3F302F470101E
:10062000B3FA83F3D84019A3185CD20305D440F67B
:100630000012C0F23D02504312E00A684FF400334A
:1006400093FAA3F302F40032B3FA83F3DA4013A36C
:100650009A5C41F20023C0F27A03B3FBF2F25043FA
:100660000968490248BF80BD4AF6AB214000CAF67E
:10067000AA21A0FB0101480880BD50F8040C8003AA
:1006800044BF4FF2244080BD002080BD020304051A
:10069000060708090A0B0C0D0E0F101001020000CE
:1006A0002DE9F04182B00446007841F22006C007EF
:1006B000C4F2020618D12068810707D556F81C1C21
:1006C000A26821F44041114346F81C1CC00607D51E
:1006D00056F81C0C616920F48000084346F81C0C95
:1006E000002002B0BDE8F08156F8040C47F2000784
:1006F00040F0805046F8040C56F8040CC4F2000791
:1007000000F0805001900198386840F480703860A3
:10071000FFF764FE054600BF3868C00508D4FFF740
:100720005DFE401B6428F7D9032002B0BDE8F081CC
:1007300030686168484010F4407FBCD030684FF4A6
:10074000803292FAA2F340F20047B3FA83F3C4F284
:100750004227012547F8235092FAA2F220F4407173
:10076000B2FA82F20023800747F82230316006D4C3
:100770003068616820F44070084330609BE7FFF701
:100780002DFE0546022741F2883800BF97FAA7F0F0
:1007900097FAA7F00028304608BF0430006897FA9F
:1007A000A7F1B1FA81F101F01F01C840C007DFD104
:1007B000FFF714FE401B4045E8D9B5E72DE9F047A7
:1007C00042F20004C4F202040D462168814601F0A1
:1007D000070041F20408A842C4F202082AD22068A5
:1007E00020F0070028432060206800F00700A8429E
:1007F00040F0F780D9F80000810708D5D8F800103C
:10080000D9F8082021F0F0011143C8F80010C00702
:100810002AD0D9F80400022800F0A780012840F06F
:10082000AD804FF4003090FAA0F158F8041C90FA13
:10083000A0F0AAE0D9F80000810708D5D8F8001088
:10084000D9F8082021F0F0011143C8F80010C007C2
:100850002AD1206820F0070028432060206800F09B
:100860000700A84240F0BD80D9F80000410708D534
:10087000D8F80010D9F80C2021F4E0611143C8F831
:100880000010000709D5D8F80000D9F8101020F49E
:10089000605040EAC100C8F8000000200027FFF7C0
:1008A000BFFD3846BDE8F087D9F8040002280AD019
:1008B000012811D14FF4003090FAA0F158F8041C2F
:1008C00090FAA0F00FE04FF0007090FAA0F158F805
:1008D000041C90FAA0F006E0022090FAA0F158F86B
:1008E000041C90FAA0F0B0FA80F000F01F0021FA8A
:1008F00000F0C00775D0D8F80000D9F8041020F037
:1009000003000843C8F80000FFF768FDD9F8041099
:100910000646012941F2883A4FF0030713D0022915
:100920001DD100BFD8F8000000F00C00082890D0BE
:10093000FFF754FD801B5045F4D9B2E7FFF74EFD99
:10094000801B5045ADD8D8F8000000F00C000428FA
:10095000F4D17EE7FFF742FD801B5045A1D8D8F8BF
:10096000000010F00C0FF5D173E74FF0007090FA13
:10097000A0F158F8041C90FAA0F006E0022090FACA
:10098000A0F158F8041C90FAA0F0B0FA80F000F042
:100990001F0021FA00F0C00723D0D8F80000D9F8D2
:1009A000041020F003000843C8F80000FFF716FD0C
:1009B000D9F804100546012941F288344FF00307A5
:1009C00018D0022924D100BFD8F8000000F00C0094
:1009D00008283FF449AFFFF701FD401BA042F3D9BF
:1009E0005FE70120BDE8F087FFF7F8FC401BA0425D
:1009F0003FF657AFD8F8000000F00C000428F3D100
:100A000032E700BFFFF7EAFC401BA0423FF649AFC8
:100A1000D8F8000010F00C0FF4D125E741F2040CD7
:100A2000C4F2020CDCF8003003F00C01082941F29A
:100A30000021C0F27A012BD14FF4701090FAA0F08F
:100A400003F47012B0FA80F022FA00F044F2681257
:100A5000C0F60002125CD80306D440F60010C0F2C3
:100A60003D0002FB00F113E0DCF800004FF400331E
:100A700093FAA3F300F40030B3FA83F3D84044F2BE
:100A80003813C0F60003185CB1FBF0F000FB02F174
:100A9000DCF80000F02292FAA2F200F0F000B2FAC4
:100AA00082F2D04044F25812C0F60002105C21FAE3
:100AB00000F040F20001C2F200010860704700003F
:100AC00041F2040CC4F2020CDCF8003003F00C011B
:100AD000082941F20021C0F27A012BD14FF47010A5
:100AE00090FAA0F003F47012B0FA80F022FA00F04D
:100AF00044F26812C0F60002125CD80306D440F635
:100B00000010C0F23D0002FB00F113E0DCF8000031
:100B10004FF4003393FAA3F300F40030B3FA83F3F5
:100B2000D84044F23813C0F60003185CB1FBF0F073
:100B300000FB02F1DCF80000F02292FAA2F200F0D1
:100B4000F000B2FA82F2D04044F25812C0F600022D
:100B5000105C4FF4E06321FA00F040F20001C2F2B1
:100B600000010860DCF8001093FAA3F301F4E061DF
:100B7000B3FA83F3D940515CC840704741F2040C8A
:100B8000C4F2020CDCF8003003F00C01082941F239
:100B90000021C0F27A012BD14FF4701090FAA0F02E
:100BA00003F47012B0FA80F022FA00F044F26812F6
:100BB000C0F60002125CD80306D440F60010C0F262
:100BC0003D0002FB00F113E0DCF800004FF40033BD
:100BD00093FAA3F300F40030B3FA83F3D84044F25D
:100BE0003813C0F60003185CB1FBF0F000FB02F113
:100BF000DCF80000F02292FAA2F200F0F000B2FA63
:100C000082F2D04044F25812C0F60002105C4FF459
:100C1000605321FA00F040F20001C2F200010860C6
:100C2000DCF8001093FAA3F301F46051B3FA83F3F4
:100C3000D940515CC840704741F2040CC4F2020C28
:100C4000DCF8003003F00C00082841F20020C0F26C
:100C50007A0018BF70474FF4701191FAA1F103F4B4
:100C60007012B1FA81F122FA01F144F26812C0F671
:100C70000002525CD90305D440F60010C0F23D00DA
:100C800050437047DCF800104FF4003393FAA3F39D
:100C900001F40031B3FA83F3D94044F23813C0F6BB
:100CA0000003595CB0FBF1F0504370472DE9F0436D
:100CB00081B08146007841F20006C007C4F2020606
:100CC0002AD199F80000800740F1C780706810F0C1
:100CD0000C0F07D0706800F00C0008285CD1706819
:100CE000C00359D4022090FAA0F1316890FAA0F024
:100CF000B0FA80F000F01F0021FA00F0C00704D025
:100D0000D9F81000012840F002813168D9F81400A8
:100D1000F82292FAA2F299E0706800F00C00042820
:100D200013D14FF4003090FAA0F1316890FAA0F09E
:100D3000B0FA80F000F01F0021FA00F0C007C0D028
:100D4000D9F804000028BCD1E1E0706800F00C0084
:100D5000082802D17068C003E3D4306820F48030E2
:100D60003060306820F480203060FFF737FB0546A4
:100D70004FF4003494FAA4F0306894FAA4F1B1FA74
:100D800081F101F01F01C840C0072BD0FFF726FBFF
:100D9000401B6428EED995E1D9F81010012090FA93
:100DA000A0F20023B2FA82F2C4F24223002943EAFD
:100DB00082012CD00860FFF711FB0546022400BF1A
:100DC00094FAA4F0306894FAA4F1B1FA81F101F038
:100DD0001F01C840C00733D1FFF700FB401B0228AA
:100DE000EED96FE1D9F80400002800F02981B0F5B0
:100DF000A02F00F04881B0F5803F00F048813068B6
:100E000020F480303060306820F4802042E10020FF
:100E10000860FFF7E3FA0546022400BF94FAA4F045
:100E2000306894FAA4F1B1FA81F101F01F01C840D1
:100E3000C00712D0FFF7D2FA401B0228EED941E1D9
:100E40003168D9F81400F82292FAA2F2B2FA82F2CA
:100E500021F0F80190400843306099F80000000745
:100E600047D5D9F818200023012090FAA0F1C4F248
:100E70004223B1FA81F1002A03F590621AD042F8B8
:100E80002100FFF7ABFA0546022400BF94FAA4F054
:100E900094FAA4F0706A94FAA4F1B1FA81F101F025
:100EA0001F01C840C00721D1FFF798FA401B022854
:100EB000ECD907E1002042F82100FFF78FFA054640
:100EC000022400BF94FAA4F094FAA4F0706A94FA91
:100ED000A4F1B1FA81F101F01F01C840C00708D0A8
:100EE000FFF77CFA401B0228ECD9EBE00120FFF76A
:100EF0005FF999F8000040070DD4D9F81C40002C88
:100F000000F01C81706800F00C00082849D1012015
:100F100001B0BDE8F083F06947F2000440F0805072
:100F2000F061F069C4F2000400F080500090009875
:100F3000206840F480702060FFF750FA054600BF3B
:100F40002068C00505D4FFF749FA401B6428F7D98B
:100F5000B8E0306A20F001003062306A20F004000E
:100F60003062FFF73BFA0546022741F2883400BFA2
:100F700097FAA7F097FAA7F000284FF0200008BFD3
:100F80002420305897FAA7F1B1FA81F101F01F013E
:100F9000C840C00741D0FFF721FA401BA042E7D963
:100FA00090E04FF08070002790FAA0F0C4F2422742
:100FB000B0FA80F0002147F82010FFF70FFA022C5A
:100FC00005464FF0007413D194FAA4F0306894FAF7
:100FD000A4F1B1FA81F101F01F01C840C00775D03A
:100FE000FFF7FCF9401B02284FF00300ECD9FCE0AE
:100FF00094FAA4F0306894FAA4F1B1FA81F101F006
:101000001F01C840C00700F09980FFF7E7F9401BB7
:1010100003284FF00300EBD3E7E0D9F80C000028D9
:1010200000F09080052800F0B780012800F0B8801B
:10103000306A20F001003062306A20F00400B2E033
:10104000306820F480303060306820F480203060D8
:10105000FFF7C4F905464FF4003700BF97FAA7F031
:10106000306897FAA7F1B1FA81F101F01F01C84089
:10107000C0073FF426AEFFF7B1F9401B64284FF0DC
:101080000300EBD9B1E0306840F480203060306874
:1010900040F480303060FFF7A1F905464FF400348A
:1010A00094FAA4F0306894FAA4F1B1FA81F101F055
:1010B0001F01C840C0077FF404AEFFF78FF9401B43
:1010C0006428EDD9032001B0BDE8F083D9F82000F1
:1010D000B0F5803F06D17168D9F8082021F40031BD
:1010E000114371607168D9F8242021F47411104300
:1010F000084370604FF0807090FAA0F0B0FA80F072
:1011000047EA800001210160FFF768F904464FF0CB
:10111000007500BF95FAA5F0306895FAA5F1B1FA0F
:1011200081F101F01F01C840C00707D1FFF756F950
:10113000001B02284FF00300ECD956E0002001B05C
:10114000BDE8F083306A20F001003062306A20F0A0
:1011500004003062FFF742F90546022741F2883861
:1011600097FAA7F097FAA7F000284FF0200008BFE1
:101170002420305897FAA7F1B1FA81F101F01F014C
:10118000C840C0073FF4B9AEFFF728F9401B4045FF
:101190004FF00300E4D928E0306A40F004003062E8
:1011A000306A40F001003062FFF718F90546022767
:1011B00041F2883897FAA7F097FAA7F000284FF085
:1011C000200008BF2420305897FAA7F1B1FA81F126
:1011D00001F01F01C840C0077FF48FAEFFF7FEF893
:1011E000401B40454FF00300E4D901B0BDE8F08357
:1011F00070B5002869D00446407C20B900202074D6
:10120000204600F06FF8022060742068416821F0E9
:1012100008014160FFF7E2F8064600BF2068456814
:10122000FFF7DCF8290705460ED4A81BB0F57A7F36
:10123000F4D9012504206074284670BDFFF7CEF86C
:10124000401BB0F57A7FF4D8216848688006F5D550
:10125000486846F62C4240F0100048604868C4F2E6
:10126000000220F007004860A06818B1536823F01E
:1012700001035360136823F46073184310606068BF
:10128000421C06D101200125FFF772F938B321680D
:1012900001388A6822F00F0242EA10428A60CA6866
:1012A00060F30F02CA60486820F010004860FFF742
:1012B00095F8054620684068800608D4FFF78EF848
:1012C000401BB0F57A7FF5D9B3E7012070BD40F23D
:1012D00001100025A4F80D000120E573ABE7042000
:1012E000A9E7000080B582B0006842F60001C4F2B0
:1012F0000001884201D002B080BDFFF72BF941F216
:101300001C00C4F202000168012241F0006101608A
:10131000006840F2004100F00060019001984FF435
:10132000004090FAA0F0B0FA80F0C4F2422141F8F7
:10133000202002B080BD0000F0B581B00446002836
:101340004FF0010018BF002901D101B0F0BD207C91
:1013500001284FF00200F8D0012323746074CB7889
:10136000BAB1180900EB800003F00F0202EB400352
:1013700048788A78070907EB870700F00F0000EB31
:101380004707100900EB800002F00F0202EB40005B
:1013900001E04F788878E373DAB2FBB21726022FA8
:1013A00006FB03F36773A07309D8DBB239277B43CD
:1013B0004FEA532C02F2CF7740F2D47E08E04EF28F
:1013C0008F36734302F5FA674FEAD34C40F2D27E70
:1013D000C0B21044BD0841F27B4370446B433D09E9
:1013E00040F63E2600EB97007543A0EB534000EB20
:1013F0001540604482B242F293435A43A0EB124339
:101400009BB25B0803EB12429208A2EBC2021044AB
:101410002268207308709169D0699369002683EA75
:1014200001073F041CBFD069194680B240EA014061
:1014300045F69071C0F2010188421AD344F2075177
:10144000CCF22E21A0FB0112110C40F2A322514339
:10145000A0EBC117FEF7C2FF054600BF2068416838
:10146000890609D4FEF7BAFF401BB0F57A7FF5D99B
:101470001CE0012100201BE0416841F010014160A7
:10148000390C8161B9B2C161416821F0100141603C
:10149000FEF7A4FF054600BF2068416889060BD40B
:1014A000FEF79CFF401BB0F57A7FF5D9012004219F
:1014B0006174267401B0F0BD016A406A80B240EAEE
:1014C0000140B8422ED200F5803000F5A347FEF768
:1014D00085FF054620684168890606D4FEF77EFF31
:1014E000401BB0F57A7FF5D9E0E7416841F0100183
:1014F0004160390C0162B9B24162416821F01001CA
:101500004160FEF76BFF054620684068800609D4FD
:10151000FEF764FF411B0120B1F57A7F4FF0040113
:10152000F2D9C5E700200121C2E7000070B50446EA
:1015300000284FF0010018BF002900D170BD207CA9
:1015400001284FF0020008BF70BD012323746074AE
:10155000087802B3020902EB820200F00F0000EBF0
:101560004200C0B24FF4616250434A78897813094F
:1015700003EB830302F00F0202EB4302D2B2C2EB91
:10158000021200EB82000A0902EB820201F00F0155
:1015900001EB420108E04FF4616250434A788978D8
:1015A000C2EB021200EB8200C9B24618FEF716FF2A
:1015B000054600BF20684168890606D4FEF70EFF85
:1015C000401BB0F57A7FF5D918E0416841F0100171
:1015D0004160310C8161B1B2C161416821F01001FB
:1015E0004160FEF7FBFE05462068416889060BD482
:1015F000FEF7F4FE401BB0F57A7FF5D901200421F7
:1016000061740021217470BD416821F005014160C1
:10161000016A406A80B240EA0140B0422BD200F534
:10162000803000F5A346FEF7D9FE054620684168E4
:10163000890606D4FEF7D2FE401BB0F57A7FF5D9B5
:10164000DCE7416841F010014160310C0162B1B248
:101650004162416821F010014160FEF7BFFE05467E
:1016600020684068800606D4FEF7B8FE401BB0F53F
:101670007A7FF5D9C2E700200121C1E7002804BF25
:101680000120704710B5044690F8510010B920466B
:1016900000F036F8022084F8510094E80710114356
:1016A000036841EA0C0123F04003036022691143FF
:1016B000D4E9052341EA020C03F40072E16942EA2D
:1016C0000C0242EA010C226AA16A42EA0C021143AE
:1016D00001600421626A01EA134111434160E16A39
:1016E0000161C16921F40061C16140F27C51C2F223
:1016F0000001002008700121606584F8511010BDC0
:10170000B0B584B040F60004C4F20104006804F5EA
:101710002051884201D004B0B0BD41F21800C4F29B
:10172000020001686D4641F480510160006829465D
:1017300000F4805000900098A020009002200190BA
:10174000032003902046FEF741FD4020009000203A
:10175000CDE9010020462946FEF738FD04B0B0BDB2
:10176000F0B581B004460020ADF8020094F85100B5
:10177000012803D094F8510022280DD100294FF000
:10178000010018BF002A01D101B0F0BD002BFBD031
:1017900094F85000012802D1022001B0F0BD0120D0
:1017A00084F8500094F85100012804BF322084F8D6
:1017B000510000206065A263A26AC4E9120020689B
:1017C000B2F5005FA387E3872163A386E38607D191
:1017D000076827F400570760076847F40057076059
:1017E00007687F0603D4076847F040070760E6688C
:1017F000069D6768B6F5006F0DD1EFB1B7F5827F32
:1018000004BF013B5FEA034740D131F8027BC76068
:101810002163E38618E0002F00F09380B7F5827F04
:1018200004BF013B5FEA034740F0B4804F1C2763CD
:101830000978C160E3868CE031F8027BC7602163E0
:10184000591E0B04E18621D1B2F5005F03D1016876
:1018500041F480510160FEF7C1FD21688A68D2071A
:1018600040F04781002D00F0EF8006466F1C00F02D
:10187000288137E1C868A16B21F8020BA163E08FD2
:10188000E18E01380029E08700F0FB80FEF7A6FD1D
:1018900021688A6892071DD406466F1C02D095B94C
:1018A000D2E000BF8868800714D467B988688007D1
:1018B00010D447B9886880070CD427B98868800796
:1018C00008D4002FEED0FEF789FD801B2168A842C6
:1018D000E8D9B9E0206B30F8022BCA60E28E2063B1
:1018E000501E0204E08607D1A06AB0F5005F03D164
:1018F000086840F480500860FEF770FD21688A682F
:10190000D207B7D106466F1C02D09DB99CE000BF3C
:101910008868C007AED16FB98868C007AAD14FB92F
:101920008868C007A6D12FB98868C0077FF4A2AF26
:10193000002FEDD0FEF752FD801B2168A842E7D9A9
:1019400082E04F1C27630978C160591E0B04E186B1
:1019500020D1B2F5005F03D1016841F480510160EC
:10196000FEF73CFD21688A68D20740F0E080002D38
:101970006AD006466F1C00F0C280D1E0C868A16B37
:101980004A1CA2630870E08FE18E01380029E087CD
:1019900000F08680FEF722FD21688A6892071DD438
:1019A00006466F1C02D095B94EE000BF88688007DC
:1019B00014D467B98868800710D447B9886880074D
:1019C0000CD427B98868800708D4002FEED0FEF722
:1019D00005FD801B2168A842E8D935E0206B421C38
:1019E00022630078C860E08E01380204E08607D1E7
:1019F000A06AB0F5005F03D1086840F48050086029
:101A0000FEF7ECFC21688A68D207B7D106466F1C46
:101A100002D09DB918E000BF8868C007AED16FB989
:101A20008868C007AAD14FB98868C007A6D12FB966
:101A30008868C0077FF4A2AF002FEDD0FEF7CEFC80
:101A4000801B2168A842E7D9486820F0E000486080
:101A5000086820F040000860A06AB0F5005F07D178
:101A6000086820F400500860086840F400500860DE
:101A7000012084F85100002084F85000032001B0B8
:101A8000F0BD6068002858D12046012100222B4675
:101A900002F06EF80028F1D12068A16BC0682AE03E
:101AA0006068002849D12046012100222B4602F01F
:101AB0005FF80028E2D12068A16BC0684A1CA263CD
:101AC00037E08868C00714D167B98868C00710D1AB
:101AD00047B98868C0070CD127B98868C00708D102
:101AE000002FEED0FEF77AFC801B2168A842E8D9CF
:101AF000AAE7C868A16B21F8020BA1631AE0886805
:101B0000C00714D167B98868C00710D147B9886881
:101B1000C0070CD127B98868C00708D1002FEED0C4
:101B2000FEF75CFC801B2168A842E8D98CE7C868F6
:101B3000A16B0870E08F0138E087A06AB0F5005F04
:101B400043D1FEF74BFC21688A68D20738D1CDB16A
:101B500006466F1C10D18868C00731D167B9886804
:101B6000C0072DD147B98868C00729D127B988682F
:101B7000C00725D1002FEED0FEF730FC801B216876
:101B8000A842E8D9486820F0E0004860086820F0E2
:101B900040000860A06AB0F5005F07D1086820F433
:101BA00000500860086840F400500860012084F884
:101BB0005100002084F85000606D40F0020030E0D9
:101BC000C868ADF80200BDF80200FEF707FC216806
:101BD0008A6812060ED4012084F85100A06AB0F57C
:101BE000005F02D18868C00609D4002084F8500044
:101BF00001B0F0BD75B306466F1C14D024E0606DD3
:101C000040F002006065086820F400500860086831
:101C100040F400500860002084F85000012001B01A
:101C2000F0BD60652AE788680006D4D567B9886882
:101C30000006D0D547B988680006CCD527B9886892
:101C40000006C8D5002FEED0FEF7C8FB801B216828
:101C5000A842E8D9486820F0E0004860086820F011
:101C600040000860A06AB0F5005F07D1086820F462
:101C700000500860086840F400500860012084F8B3
:101C80005100002084F85000606D40F01000C8E75B
:101C90004EF21001CEF200010A68042822F004027C
:101CA00008BF04320A60704770470000411E0020E0
:101CB000B0EB116F1CBF012070474EF21002CEF244
:101CC000000251604EF62351CEF20001F0230B705A
:101CD0000721906011607047FFF7E6BF7047000072
:101CE0007047000090F83820012A4FF002021AD005
:101CF00080F839200268536823F070035360D2F8EB
:101D000004C0D1E9003143EA0C035360936823F027
:101D1000800393609368194391600121002280F849
:101D2000391080F83820104670470000002804BFA2
:101D30000120704710B5044690F8390028B90020FA
:101D400084F83800204600F00DF8022084F83900AD
:101D50002068211D01F0B8FF012084F8390000201F
:101D600010BD000080B582B0006840F20041C4F2AE
:101D7000000188421CBF02B080BD41F21C00C4F2C9
:101D800002000168002241F00201016000680021A8
:101D900000F00200019001981D20FEF79FFB1D201E
:101DA00002B0BDE88040FEF78BBB00000168C86848
:101DB00040F00100C860086840F0010200200A609D
:101DC0007047000080B590F83820012A4FF00202D9
:101DD00000F0DA8080F83920D0F800C04FF6777232
:101DE000DCF8083023EA0202CCF808200B684F2BFD
:101DF00028DC1F2B36DD202B64D0302B69D0402B04
:101E000040F0BC80D1F804E0C968DCF82030DCF890
:101E1000202022F00102CCF82020DCF8182022F04B
:101E2000F00242EA011123F00A0242EA0E02CCF863
:101E30001810CCF82020DCF8081041F0470121F000
:101E4000300199E06F2B19DD702B49D0B3F5005F9D
:101E500059D0B3F5805F40F09180DCF8081021F094
:101E6000070189E0002B61D0102B40F08780DCF85F
:101E7000081041F0170121F060017DE0502B5CD08B
:101E8000602B7BD1D1F804E0C968DCF8203023F066
:101E90001003CCF82030DCF81830DCF8202023F4D4
:101EA000704322F0A00243EA013142EA0E12CCF85C
:101EB0001810CCF82020DCF8081041F0670121F060
:101EC000100159E0DCF8081041F0270121F0500121
:101ED00052E0DCF8081041F0370121F040014BE0FE
:101EE000D1E901E3C968DCF8082043EA0E0322F4D3
:101EF0007F4243EA01211143CCF80810DCF80810B6
:101F000041F0770138E0D1E901E3C968DCF8082045
:101F100043EA0E0322F47F4243EA01211143CCF845
:101F20000810DCF8081041F4804125E0DCF80810C6
:101F300041F0070121F070011EE0D1F804E0C9680A
:101F4000DCF82030DCF8202022F00102CCF8202040
:101F5000DCF8182022F0F00242EA011123F00A0214
:101F600042EA0E02CCF81810CCF82020DCF8081059
:101F700041F0570121F02001CCF808100121002286
:101F800080F8391080F83820104680BD7047000076
:101F900010B5016804460869800744BFC8685FEA55
:101FA000807038D40869400744BFC8685FEA407051
:101FB0003DD40869000744BFC8685FEA007043D495
:101FC0000869C00644BFC8685FEAC06048D40869B1
:101FD000C0071CBFC8685FEAC0704ED10869000620
:101FE00044BFC8685FEA00604FD40869400644BF38
:101FF000C8685FEA406050D40869800646BFC86878
:102000005FEA806010BD6FF0200220460A61BDE8E3
:102010001040FFF765BE6FF00200086101202076D6
:102020008869800741D02046FFF7B0FF43E06FF09A
:102030000400086102202076886910F4407F3ED0B9
:102040002046FFF7A3FF40E06FF00800086104207E
:102050002076C86980073CD02046FFF797FF3EE016
:102060006FF01000086108202076C86910F4407FE6
:1020700039D02046FFF78AFF3BE06FF0010008618E
:10208000204600F03FF82168A8E76FF08000086163
:102090002046FFF723FE2168A7E76FF040000861A4
:1020A000204600F037F82168A6E7204600F026F821
:1020B000204600F025F821680020207672E72046AF
:1020C00000F01CF8204600F01BF821680020207664
:1020D0006FE7204600F012F8204600F011F8216862
:1020E000002020766CE7204600F008F8204600F03B
:1020F00007F821680020207669E70000704700009B
:102100007047000040F25450C2F2000001210170FB
:102110007047000070470000002804BF012070478E
:1021200010B5044690F8390028B9002084F838002A
:10213000204600F01FF8022084F839002068C168AA
:1021400021F40051C160204601F024FE206801699D
:1021500021F490410161416921F02A014161C16886
:1021600041F40051C16000200121E06384F839107E
:1021700010BD0000B0B584B040F60044C4F20104C4
:102180000068A4F54441884201D004B0B0BD41F2DA
:102190001C00C4F2020001686D4641F48021016018
:1021A0000068294600F48020009000984FF4806079
:1021B000009002200190032003902046FEF706F8CD
:1021C0004FF4006000900020CDE901002046294630
:1021D000FDF7FCFF04B0B0BD40F2D400C2F2000035
:1021E00090F87401002814BF0120704700F0B6B8C1
:1021F000F0B581B0372001F07FFC40F2D406C2F286
:10220000000696F8740180B144F23C10C0F600005C
:1022100090E82E00D0E9044C806906F5DA7E8EE85D
:102220002E00C6E9714CC6F8CC0101F077FC01F034
:1022300057FB44F27810C0F60000011D372000F073
:1022400073F841F66D744CF23265C0F2CC14C0F2F2
:10225000010546F24E570120214648F649122B4609
:10226000009701F01BFC0220214648F649122B463C
:10227000009701F013FC03202946872246F24E53B3
:1022800001F00CFC96F8740130B10120012101B07D
:10229000BDE8F04001F0F6BB01B0F0BD40F2D40063
:1022A000C2F2000090F87401002808BF70470120B6
:1022B000012101F017BC000010B540F2D400C2F2B9
:1022C000000090F87401002808BF10BD0220012111
:1022D00001F08CFB40F25454C2F200042061022051
:1022E000032101F083FB60610220042101F07EFBE9
:1022F000A0610220012101F0FFFA606002200321A9
:1023000001F0FAFAA0600220042101F0F5FA8446F7
:1023100004F11C0104F1200202200123C4F80CC0C6
:10232000BDE8104001F018BB10B5000713D040F213
:10233000D404C2F2000494F8740160B10B46012089
:102340000021132201F002FC04F5E87301200021B2
:10235000132201F0EFFB002010BD0000012804D87B
:1023600080B500F01FF9BDE88040002070470000F4
:1023700010B590F90020382101EAD213510648BF68
:1023800083F01C03910648BF83F00E03D10648BFBB
:1023900083F0070383EA02114FF0070E4FFA81FC26
:1023A0008EEA4301BCF1FF3FC8BF590081EA4213E6
:1023B0004FFA83FC8EEA4103BCF1FF3FC8BF4B00DC
:1023C00083EA82114FFA81FC8EEA4301BCF1FF3FA0
:1023D000C8BF590081EAC21253B28EEA4102B3F17A
:1023E000FF3FC8BF4A004378817890F803C082EA73
:1023F000030040B28EEA4204B0F1FF3FC8BF540070
:1024000084EA430040B28EEA4402B0F1FF3FC8BF05
:10241000620082EA830040B28EEA4204B0F1FF3FDC
:10242000C8BF540084EAC30040B28EEA4402B0F14F
:10243000FF3FC8BF620082EA031040B28EEA420446
:10244000B0F1FF3FC8BF540084EA431040B28EEAA7
:102450004402B0F1FF3FC8BF620082EA831040B27D
:102460008EEA4204B0F1FF3FC8BF540084EAC310B3
:1024700040B28EEA4402B0F1FF3FC8BF620082EA78
:10248000010040B28EEA4203B0F1FF3FC8BF5300E3
:1024900083EA410040B28EEA4302B0F1FF3FC8BF79
:1024A0005A0082EA810040B28EEA4203B0F1FF3F57
:1024B000C8BF530083EAC10040B28EEA4302B0F1C4
:1024C000FF3FC8BF5A0082EA011040B28EEA4203C1
:1024D000B0F1FF3FC8BF530083EA411040B28EEA1B
:1024E0004302B0F1FF3FC8BF5A0082EA811040B2F8
:1024F0008EEA4203B0F1FF3FC8BF530083EAC11028
:1025000040B28EEA4301B0F1FF3FC8BF590081EAF3
:102510000C0040B28EEA4102B0F1FF3FC8BF4A0052
:1025200082EA4C0040B28EEA4201B0F1FF3FC8BFE0
:10253000510081EA8C0040B28EEA4102B0F1FF3FC7
:10254000C8BF4A0082EACC0040B28EEA4201B0F134
:10255000FF3FC8BF510081EA0C1040B28EEA410231
:10256000B0F1FF3FC8BF4A0082EA4C1040B28EEA89
:102570004201B0F1FF3FC8BF510081EA8C1040B268
:102580008EEA4102B0F1FF3FC8BF4A0082EACC1098
:1025900040B28EEA4201B0F1FF3FC8BF5100C8B25D
:1025A00010BD0000F0B581B040B340F27856C2F2E1
:1025B0000006044630684FF4BA7704FB07032A216B
:1025C00013F8B00B0091062813D16D46204629461A
:1025D000212200F005FB3068842104FB07000091F4
:1025E00000F5B27320462946042200F0F9FA01B042
:1025F000F0BD69462046312200F0F2FA01B0F0BD8C
:102600002DE9F04740F27856C2F2000604463068E1
:102610004FF4BA7504FB05010122C86CB1F85010E3
:10262000FDF7D6FE3068002204FB0501C86CB1F846
:102630005010FDF7CDFE40F20007C2F200073868E7
:1026400046F60048C0F2DC284DF6000A4AF200299E
:102650004045C0F2B85AC0F24A4907D0504507D0A9
:10266000484514BF64204FF49A7003E0CC2001E089
:102670004FF4CE7040F28855C2F200052968043844
:1026800001F101012960296801F10101296029682E
:1026900001F101012960296801F101012960EDD1F1
:1026A00030684FF4BA7104FB01010122C86CB1F823
:1026B0005010FDF78DFE3868404507D0504507D0D3
:1026C000484514BF64204FF49A7003E0CC2001E029
:1026D0004FF4CE702968043801F10101296029689E
:1026E00001F101012960296801F1010129602968CE
:1026F00001F101012960EDD130684FF4BA7104FB9A
:1027000001010022C86CB1F85010FDF761FE386875
:10271000504506D0484507D0404514BF6420CC2022
:1027200004E04FF4CE7001E04FF49A702968043849
:1027300001F101012960296801F10101296029687D
:1027400001F101012960296801F101012960EDD140
:1027500030684FF4BA7104FB01010122C86CB1F872
:102760005010FDF735FE3868504506D0484507D073
:10277000404514BF6420CC2004E04FF4CE7001E04B
:102780004FF49A702968043801F101012960296821
:1027900001F101012960296801F10101296029681D
:1027A00001F101012960EDD130684FF4BA7104FBE9
:1027B00001010022C86CB1F85010FDF709FE38681D
:1027C000504506D0484507D0404514BF6420CC2072
:1027D00004E04FF4CE7001E04FF49A702968043899
:1027E00001F101012960296801F1010129602968CD
:1027F00001F101012960296801F101012960EDD190
:1028000030684FF4BA7104FB01010122C86CB1F8C1
:102810005010FDF7DDFD3868504506D0484507D01B
:10282000404514BF6420CC2004E04FF4CE7001E09A
:102830004FF49A702968043801F101012960296870
:1028400001F101012960296801F10101296029686C
:1028500001F101012960EDD1BDE8F0872DE9F043D8
:1028600083B000285FD00446012912D0022943D04A
:10287000032958D140F27850C2F2000000684FF4AA
:10288000BA7104FB0103042153F8640F61F357503C
:102890003FE040F27856C2F2000630684FF4BA7555
:1028A00004FB05010122C86CB1F85010FDF790FD42
:1028B0003068002204FB0501C86CB1F85010FDF728
:1028C00087FD40F20009C2F20009D9F8000046F67F
:1028D0000047C0F2DC274DF60008B842C0F2B858F5
:1028E00024D0404524D04AF20021C0F24A41884217
:1028F00014BF07211C211CE040F27850C2F20000F6
:1029000000684FF4BA7104FB010353F8640F40F4FC
:10291000C000186004200290012702A9204601226D
:10292000009700F0A3FA03B0BDE8F083112100E0A6
:1029300026214A1E40F2885501F00300032AC2F204
:10294000000513D301F03C012A68043902F10102A9
:102950002A602A6802F101022A602A6802F1010253
:102960002A602A6802F101022A60EDD170B129685B
:10297000012801F10101296008D02968022801F12C
:102980000101296002D028680130286030684FF4C6
:10299000BA7104FB01010122C86CB1F85010FDF7B7
:1029A00017FDD9F80000B8420AD040450AD04AF2D3
:1029B0000021C0F24A41884214BF07211C2102E0D5
:1029C000112100E02621481E032801F0030013D343
:1029D00001F03C012A68043902F101022A602A68E8
:1029E00002F101022A602A6802F101022A602A68C3
:1029F00002F101022A60EDD1002894D02968012853
:102A000001F1010129603FF48EAF2968022801F12C
:102A1000010129603FF487AF28680130286003B0C6
:102A2000BDE8F08340F278520146C2F20002002075
:102A3000116070472DE9F04F83B040F2785BC2F22D
:102A4000000B0446DBF800004FF4BA7704FB0700E4
:102A500090F82C1011B103B0BDE8F08F006B40F27C
:102A6000D0310378C2F20001582204FB02100A217F
:102A70008DF8093000910DF1090102AA012301909E
:102A80004FF00108FEF76CFEDBF8000040F2D009C1
:102A900004FB07004FF0000A016BC2F2000901318C
:102AA0000163DBF800109DF8080004FB071282F8B0
:102AB0002C8024E013F8010B0B60DBF8001082F887
:102AC000290004FB071383F82A8004FB07100DF18B
:102AD0000B0190F829000DF10A028DF80B00019806
:102AE00001230A260096FEF73BFE9DF80A00DBF85C
:102AF000001004FB071292F82C20002AABD004FB34
:102B000007152A4652F8386F536802F8100CB34282
:102B100016D099F800200132D6B2042E89F8002090
:102B200034D81870DBF8001004FB0711CA6B0132AF
:102B3000CA63DBF8001004FB071282F82D802CE03A
:102B400040F28003C2F200031360DBF8001085F846
:102B50002BA004FB071185F82DA0CB63DBF8001038
:102B600004FB0711CA6B91F828101170DBF80010F4
:102B700004FB0711CA6B0132CA63DBF8001004FBC7
:102B8000071282F82D8089F8008006E095F82B2046
:102B9000013285F82B2089F800A004FB0712556B41
:102BA000002DA6D0114651F8303F9D427FF482AFF0
:102BB00040F2A803C2F200030B60DBF8001082F8B9
:102BC0002AA004FB071182F82CA04B63DBF800104D
:102BD00004FB071393F82A30012B3FF476AF88E704
:102BE0002DE9F04F83B040F2A80BC2F2000B009128
:102BF0000446584628211F461546FDF7BCFA40F208
:102C00008008C2F2000840462821FDF7B4FA40F2DD
:102C10007856C2F2000630684FF4BA7A04FB0A0014
:102C20004FF00009C0F830B0306804FB0A00C0F86B
:102C300034B0306804FB0A00A0F82990C0F838804E
:102C4000316880F82C9004FB0A110098C1F83C8090
:102C5000316804FB0A1181F82B9081F82D9081F8DE
:102C6000289090F800804FF6FF70ADF80900FF2023
:102C70008DF80B0002A88DF80880FFF779FB31680A
:102C80004FF6FF7304FB0A114A6BA2F80130FF23D1
:102C900082F80080D3701071486B002205304863C1
:102CA000306804FB0A01486CB1F84810FDF790FB4E
:102CB0002046FFF7BFFECDF80490306804FB0A0100
:102CC00091F82B20002A00F08780C1F830B03068DE
:102CD00040F2800204FB0A00C2F20002C0F834B0E5
:102CE0003068002D04FB0A01A1F829908A6330683E
:102CF00081F82C9004FB0A00C263306804FB0A02CE
:102D000082F82B9082F82D9082F8289000F0908025
:102D1000681EC0B200EB80000A304FF0FF394FF45C
:102D2000BA784FF0000A009002A8CDF80890FFF79B
:102D30001FFB316804FB08114A6BC2F80090107148
:102D4000486B053048632046FFF774FE306804FB8B
:102D5000080090F82B1059B3806B40F28002006895
:102D6000C2F2000247F8040B3068013D04FB080082
:102D7000C0F830B0306804FB0800C0F834B03068E8
:102D800004FB0801A1F829A08A63306881F82CA00F
:102D900004FB0800C263306804FB080282F82BA021
:102DA00082F82DA082F828A0BED1009D41E000BF8E
:102DB000FEE700BF0199013101910199322911D833
:102DC000019901310191019932290BD80199013101
:102DD00001910199332905D201990131019101999C
:102DE0003229E7D94FF4BA7104FB010040F28003A5
:102DF000C0F830B03068002504FB0100C2F20003C7
:102E0000C0F834B0306804FB0100A0F82950836397
:102E1000326880F82C5004FB0122D363326804FB33
:102E2000012181F82B5081F82D5081F8285018E0AD
:102E300005254FF4BA7104FB01010122486CB1F879
:102E40004810FDF7C5FA40F2A800C2F200002821A0
:102E5000FDF791F940F28000C2F200002821FDF751
:102E60008AF9284603B0BDE8F08F00002DE9F04F45
:102E700085B040F2A804C2F20004039182462046C5
:102E8000282199461746FDF776F940F28005C2F2EF
:102E9000000528462821FDF76EF940F27856C2F267
:102EA000000630684FF4BA730AFB03000022046383
:102EB0003068002F0AFB0300446330680AFB0300FC
:102EC000A0F829208563316880F82C200AFB0311C3
:102ED000CD6331684FEA47050AFB031181F82B20C7
:102EE00081F82D2081F82820486CB1F848104FF067
:102EF000000208BF0125FDF76BFA280669D0681E9D
:102F0000C0B200EB800005300024019002952CE057
:102F10000AFB070040F2A801C2F200010163306819
:102F200040F280020AFB0700002341633068C2F2CE
:102F300000020AFB0701029DA1F829308A6330686C
:102F400001340AFB070081F82C30C2633068E1B21B
:102F50000AFB070209F1020982F82B3082F82D30B2
:102F600082F82830EAB28A4236D9039899F800806C
:102F7000007899F8015000EB040BFF2704A88DF8A6
:102F800010708DF811B08DF812808DF81350FFF786
:102F9000EFF931684FF4BA720AFB02114A6B1770ED
:102FA00082F801B082F80280D5701071486B4FF43E
:102FB000BA77053048635046FFF73CFD0E993068FC
:102FC0000129A5D10AFB070191F82B1000299FD1F7
:102FD000FEE73068002700E0019F4FF4BA740AFB57
:102FE00004010122486CB1F84810FDF7F1F930688E
:102FF00040F280050AFB040140F2A800C2F2000082
:1030000008633168C2F200050AFB041148633168A5
:103010000AFB04130021A3F829109D63326883F88A
:103020002C100AFB0422D56332680AFB042282F8C2
:103030002B1082F82D1082F828102821FDF79BF81C
:1030400028462821FDF797F8384605B0BDE8F08FEF
:103050002DE9F047002800F0AA8140F27858C2F22A
:1030600000088246D8F800004FF4BA790AFB09003C
:1030700040F2D036016CC2F2000658220AFB026010
:103080000AFB02F7F1514FF482710022C0E90112EC
:1030900000F10C01022301244FF400754FF0180CCD
:1030A00081E83C1007210262C0E90922C162FEF7F3
:1030B000E5FAF0590122016841F040010160D8F8B9
:1030C00000000AFB0901486CB1F84810FDF780F9CF
:1030D00040F20005C2F20005286846F60047C0F23B
:1030E000DC274DF60009B842C0F2B8590CD048456B
:1030F0000DD04AF20021C0F24A41884214BF40F28A
:103100000C4240F62A4204E040F61B0201E041F284
:103110003902531E40F2885602F00301032BC2F21B
:10312000000615D341F63C431A4000BF3368043A09
:1031300003F101033360336803F101033360336843
:1031400003F101033360336803F101033360EDD110
:1031500071B13268012902F10102326008D032688F
:10316000022902F10102326002D03168013131607E
:10317000B8420ED0484511D04AF20021C0F24A416F
:10318000884212BF48F60C614AF62A21C0F20101BA
:1031900008E041F61B41C0F2010103E043F63901AA
:1031A000C0F202014BF63C62C0F2030201F00300E0
:1031B000114000BF3268043902F101023260326806
:1031C00002F101023260326802F1010232603268BB
:1031D00002F101023260EDD170B13168012801F1D4
:1031E0000101316008D03168022801F1010131602C
:1031F00002D03068013030605046FFF701FA28688D
:10320000B8420CD048450DD04AF20021C0F24A41E4
:10321000884214BF40F20C4140F62A4104E040F6D7
:103220001B0101E041F23901481E032801F00300AF
:1032300014D341F63C4211403268043902F10102D4
:103240003260326802F101023260326802F101023A
:103250003260326802F101023260EDD170B1316842
:10326000012801F10101316008D03168022801F123
:103270000101316002D0306801303060D8F80000C0
:103280004FF4BA710AFB01010022486CB1F84810F2
:10329000FDF79EF82868B8420BD048450BD04AF29B
:1032A0000021C0F24A41884214BF64204FF49A7052
:1032B00004E0CC2002E04FF4CE7000BF3168043847
:1032C00001F101013160316801F1010131603168C2
:1032D00001F101013160316801F101013160EDD18D
:1032E000D8F800004FF4BA710AFB01010122486CC2
:1032F000B1F84810FDF76CF82868B8420CD0484582
:103300000DD04AF20021C0F24A41884214BF45F272
:103310002A114FF2843106E04AF2572103E044F2C9
:10332000B241C0F20101481E032801F0030017D387
:103330004FF2FC72C0F20102114000BF3268043942
:1033400002F101023260326802F101023260326839
:1033500002F101023260326802F101023260EDD105
:1033600070B13168012801F10101316008D0316884
:10337000022801F10101316002D030680130306073
:10338000D8F800004FF4BA750AFB0500002100F1DF
:103390005C03504601220026FFF722FC002818BFDC
:1033A000BDE8F087D8F800000AFB05F14652BDE8F9
:1033B000F08700002DE9F04381B0002800F0F8808C
:1033C00040F27859C2F200090446D9F800004FF4DF
:1033D000BA7104FB01010022486CB1F84810FCF7F7
:1033E000F7FF40F20007C2F20007386846F60046D1
:1033F000C0F2DC264DF60008B042C0F2B8580CD03E
:1034000040450DD04AF20021C0F24A41884214BF23
:1034100040F20C4140F62A4104E040F61B0101E075
:1034200041F239014A1E40F2885501F00300032A97
:10343000C2F2000514D341F63C4211402A68043917
:1034400002F101022A602A6802F101022A602A6858
:1034500002F101022A602A6802F101022A60EDD11C
:1034600070B12968012801F10101296008D029689B
:10347000022801F10101296002D02868013028608A
:10348000D9F800004FF4BA7104FB01010022486D25
:10349000B1F85810FCF79CFF3868B0420CD040459A
:1034A0000DD04AF20021C0F24A41884214BF40F2D6
:1034B0000C4140F62A4104E040F61B0101E041F2D4
:1034C0003901481E032801F0030015D341F63C42A0
:1034D000114000BF2A68043902F101022A602A68FB
:1034E00002F101022A602A6802F101022A602A68B8
:1034F00002F101022A60EDD170B12968012801F1C1
:103500000101296008D02968022801F10101296020
:1035100002D0286801302860D9F800004FF4BA7151
:1035200004FB01010122486DB1F85810FCF750FF6F
:103530003868B0420CD040450DD04AF20021C0F2AC
:103540004A41884214BF40F20C4140F62A4104E04F
:1035500040F61B0101E041F23901481E032801F049
:10356000030015D341F63C42114000BF2A680439DC
:1035700002F101022A602A6802F101022A602A6827
:1035800002F101022A602A6802F101022A60EDD1EB
:1035900070B12968012801F10101296008D029686A
:1035A000022801F10101296002D028680130286059
:1035B00001B0BDE8F083000070B102290ED00129EE
:1035C0000AD140F27851C2F2000109684FF4BA7290
:1035D00000FB0210EC300BE00020704740F2785105
:1035E000C2F2000109684FF4BA7200FB0210F03019
:1035F0000068C00B7047000070B102290ED001298D
:103600000AD140F27851C2F2000109684FF4BA724F
:1036100000FB0210EC300BE00020704740F27851C4
:10362000C2F2000109684FF4BA7200FB0210F030D8
:1036300000686FF3DF307047002846D0013A032A54
:1036400043D8DFE802F002221232022940D00129D9
:103650003BD140F27851C2F2000109684FF4BA72CE
:1036600000FB021000F5827061E002293CD00129C4
:103670002BD140F27851C2F2000109684FF4BA72BE
:1036800000FB021000F5867051E0022938D00129B4
:103690001BD140F27851C2F2000109684FF4BA72AE
:1036A00000FB021000F5847041E0022934D00129AA
:1036B0000BD140F27851C2F2000109684FF4BA729E
:1036C00000FB021000F5887031E00020C117704740
:1036D00040F27851C2F2000109684FF4BA7200FB5F
:1036E000021000F59A7022E040F27851C2F2000117
:1036F00009684FF4BA7200FB021000F59E7016E0E4
:1037000040F27851C2F2000109684FF4BA7200FB2E
:10371000021000F59C700AE040F27851C2F20001FC
:1037200009684FF4BA7200FB021000F5A07000683F
:10373000C1177047002800F07A80013A062A00F28B
:103740007680DFE802F00414243444546400022933
:103750006FD001296BD140F27851C2F200010968A3
:103760004FF4BA7200FB021000F58A70B4E002292F
:103770006BD001295BD140F27851C2F20001096897
:103780004FF4BA7200FB021000F58C70A4E002291D
:1037900067D001294BD140F27851C2F2000109688B
:1037A0004FF4BA7200FB021000F58E7094E002290B
:1037B00063D001293BD140F27851C2F2000109687F
:1037C0004FF4BA7200FB021000F5907084E00229F9
:1037D0005FD001292BD140F27851C2F20001096873
:1037E0004FF4BA7200FB021000F5927074E00229E7
:1037F0005BD001291BD140F27851C2F20001096867
:103800004FF4BA7200FB021000F5947064E00229D4
:1038100057D001290BD140F27851C2F2000109685A
:103820004FF4BA7200FB021000F5967054E00020CD
:10383000704740F27851C2F2000109684FF4BA7241
:1038400000FB021000F5A27046E040F27851C2F28F
:10385000000109684FF4BA7200FB021000F5A47071
:103860003AE040F27851C2F2000109684FF4BA72AE
:1038700000FB021000F5A6702EE040F27851C2F273
:10388000000109684FF4BA7200FB021000F5A8703D
:1038900022E040F27851C2F2000109684FF4BA7296
:1038A00000FB021000F5AA7016E040F27851C2F257
:1038B000000109684FF4BA7200FB021000F5AC7009
:1038C0000AE040F27851C2F2000109684FF4BA727E
:1038D00000FB021000F5AE70006840F31B0070475B
:1038E00040F2D400C2F2000090F87401002814BF26
:1038F00001207047FFF7ACBB10B504460A46012013
:103900002146FFF717FF022C0DD0012C17D140F2F2
:10391000D401C2F20001D1F87821A2FB0013C01734
:1039200002FB00300DE040F2D401C2F20001D1F8F8
:103930008021A2FB0013C01702FB003001E0002130
:1039400000200A22A1FB021200EB800002EB4000E3
:10395000090F41EA001010BD2DE9F04107460D4660
:10396000012039461C469046FFF746FE06460120D8
:103970003946FFF721FE012C08D0002C18BFBDE806
:10398000F0812E60C8F80000BDE8F08140F2D4015B
:10399000C2F2000101F5CA72012F08BF01F5C6721B
:1039A0001268012F01F5C877A0FB02024FF00A034D
:1039B00008BF01F5C4773968A0FB030402EB82025B
:1039C000A6FB011704EB4202400CA1FB031340EAE3
:1039D000C23007EB870203EB4202C90B41EA4241C6
:1039E0002960C8F80000BDE8F0810000B0B50D46C0
:1039F0000446012021462A46FFF71EFE40F2080237
:103A000004EB8401C2F2000202EB810151F825208F
:103A100001EB8503B2F1204F1D4606D9410F022963
:103A200003D8D96B0131D96309E053F83C1F520F19
:103A3000022A04D8B0F1204F84BF01391960022C4A
:103A400028600CD0012C14D140F2D402C2F2000242
:103A5000D2F87C21A0FB020301FB023109E040F215
:103A6000D402C2F20002D2F88421A0FB020301FBBF
:103A700002310A22A0FB020201EB810002EB4000AE
:103A8000B0BD000040F2D402C2F200024FF4BA739B
:103A900000FB0322002082F824107047B0B540F2EA
:103AA000D4040128C2F200040BD0022818BFB0BD14
:103AB00004F5CA7C04F5C87E04F5C27004F5C07430
:103AC00007E004F5C67C04F5C47E04F5BE7004F579
:103AD000BC74049D21600260CEF80030CCF8005028
:103AE000B0BD0000012804D880B5FEF7B7FEBDE8E0
:103AF000804000207047000080B5C1B200F00F0286
:103B000040F2D400C2F20000090980F8742180F864
:103B10007511FEF787FF002080BD000040F2D40041
:103B2000C2F2000090F87401002814BF0120704711
:103B3000FFF740BC40B180B582B0019101A9FFF709
:103B40004FF802B0BDE880400020704770B180B5EA
:103B500082B001914FF0010C01A9CDF800C0FFF730
:103B600085F902B0BDE88040C0B27047C0B270476E
:103B70002DE9F0411D4617460E460446FCF72EFC83
:103B800021688046886800EA060037B1B04206D155
:103B9000002D45D06F1C09D01DE0B04202D100209D
:103BA000BDE8F081E5B36F1C1ED032E0886830407C
:103BB000B042F4D17FB988683040B042EFD157B9F4
:103BC00088683040B042EAD12FB988683040B042AE
:103BD000E5D1002FEAD0FCF701FCA0EB080021683A
:103BE000A842E3D91CE000BF88683040B042D6D07C
:103BF0007FB988683040B042D1D057B9886830402A
:103C0000B042CCD02FB988683040B042C7D0002F26
:103C1000EAD0FCF7E3FBA0EB08002168A842E3D957
:103C2000486820F0E0004860086820F04000086024
:103C3000A06AB0F5005F07D1086820F40050086062
:103C4000086840F400500860012084F8510000200A
:103C500084F850000320BDE8F081000080B5FCF737
:103C6000C3FBBDE88040FEF737B8000041F200001A
:103C7000C4F202000168002241F0010101604168C4
:103C8000CFF6FF021140416001684FF6FF72CFF698
:103C9000F66211400160016821F4802101604168F1
:103CA00021F4FE0141604FF41F0181604EF608507F
:103CB000CEF200004FF000610160704740F2D84042
:103CC000C2F20000FEF764B980B540F6FF3E03681B
:103CD000C4F2000E43F2004C7045C4F2010C20DC2B
:103CE000B0F1804F2BD040F20042C4F2000290426B
:103CF00025D040F60002C4F2000290421FD0704569
:103D000023DCB0F1804F2ED040F20042C4F200021A
:103D1000904228D040F60002C4F20002904222D025
:103D200025E040F60042C4F20002904207D0604510
:103D300005D042F60042C4F201029042DFD14A6847
:103D400023F0700313437045DBDD40F60042C4F2FC
:103D50000002904207D0604505D042F60042C4F20E
:103D60000102904203D1CA6823F4407313430360F5
:103D70008A680B686045C262836205D042F60042E1
:103D8000C4F20102904201D109690163012141613C
:103D900080BD00002DE9F04381B00446006804F1C5
:103DA00008030ECB0669194326F4405632430261DC
:103DB000626941F20C631143C26848F21F599A4389
:103DC0001143C1604169A26921F44071114341610D
:103DD00043F60001C4F201018842C5F2EB191CD080
:103DE000FCF76EFE6168192778438900B0FBF1F695
:103DF000FCF766FE616878438900B0FBF1F5FCF7DB
:103E00005FFE616878438900B0FBF1F0A0FB090117
:103E10004809642100FB11501FE0FCF7AFFE616808
:103E20004FF0190800FB08F08900B0FBF1F6FCF731
:103E3000A5FE616800FB08F08900B0FBF1F7FCF714
:103E40009DFE616800FB08F08900B0FBF1F0A0FB6B
:103E500009014809642100FB1170A6FB09123221F7
:103E600001EB0010A0FB0901500849090009226874
:103E700060F31F11916001B0BDE8F08396B040F689
:103E80000004C4F20104FCF7B7FA09200C904FF4C7
:103E9000E0104FF4803600274FF0010802251590FE
:103EA0000CA80D960E97CDF84080CDF84880CDE94E
:103EB0001356FCF7FBFE0F2007A9A1C14FF4806940
:103EC00007A80221CDE90A97FCF778FC4FF4007AA5
:103ED00001A8CDF80480CDF808A0FCF7E1FBFCF7C1
:103EE0009DFD44F6D35BC1F2620BA0FB0B01880978
:103EF000FDF7DCFE0420FDF7CBFE4FF0FF30002184
:103F00000022FCF7EBFA41F21800C4F2020001684B
:103F1000002241F010010160016801F010010C91D4
:103F20000C99016841F020010160016801F0200155
:103F30000C910C99016841F004010160016801F0E5
:103F400004010C910C99016841F0080101600068BE
:103F500040F2173100F008000C900C982046FCF756
:103F600037FA204608210122FCF732FA40F21F30CE
:103F7000CDE90C080CA920460F95FCF727F909207C
:103F80000CA9C1C14FF4E01015900CA8CDF84080E9
:103F9000CDE912851496FCF789FE0F2007A981E868
:103FA000A10207A802210B97FCF708FC01A8CDE9A4
:103FB000018AFCF775FBFCF731FDA0FB0B018809BA
:103FC000FDF774FE0420FDF763FE4FF0FF30002183
:103FD0000022FCF783FA40F2804004F52051C2F23F
:103FE00000004FF48272182380E886000A21C0E99D
:103FF0000375C0E9058AC361C0E90877C0E90A71A1
:10400000FDF73CFB40F2D845C2F20005A4F5823929
:104010002846C5E90097C5E902772F61FDF786FEBE
:104020004FF480500C900CA92846FDF7CBFE01A957
:104030002846CDE90177FDF755FE40F21450A4F56E
:104040004041C2F200000C234FF4165280E8860073
:10405000C0E90377C0E90537C761FEF75DF840F2B4
:10406000BC36A4F56040C2F2000630604FF0FF3A63
:104070003046C6E901A7FDF7BBF801A93046012289
:10408000ADF804808DF80670FDF750FA40F201108B
:10409000C0F201000C900CA930460122FDF74CF94A
:1040A00040F20000C2F20000006841F25971CDF206
:1040B000B711A0FB01010AEB513040F28051C2F26E
:1040C0000001086042F20F71C5E900902846C5E979
:1040D0000271C5E90477FDF729FE00B1FEE7FEF79E
:1040E00087F840F2D840C2F20000FDF75FFE00B151
:1040F000FEE740F25455C2F2000528780128FDD1B0
:1041000020460121FCF760F9FEF7C8F8FEF764F8D5
:10411000FEF7D2F800202870F0E702E008C8121F6E
:1041200008C1002AFAD170477047002001E001C1A0
:10413000121F002AFBD1704701020000003001402D
:1041400000080140100000000008014000020000CB
:104150000008014008000000000000000102030404
:1041600001020304060708090203040506070809FB
:104170000A0B0C0D0E0F101037000000A0000004F9
:10418000A0000024E00400000000000000F83F0050
:1041900000F83F0000F83F0000F83F00FF0F00006C
:1041A000FF0F0000FF0F0000FF0F00002703270391
:1041B00027032703000000000000000000000000AB
:1041C00000000000074000006D1FCC016D1FCC01F6
:1041D00032C6010032C601004E6500004E65000087
:1041E0000042000800000020080000001A410008FA
:1041F0000842000808000020882500002A41000825
:0842000000A24A0400000000C6
:0400000508000131BD
:00000001FF
