:020000040800F2
:10000000E0260020450100084D0100084F010008CE
:1000100051010008530100085501000800000000CC
:100020000000000000000000000000005701000870
:1000300059010008000000005B010008534300085C
:100040005F0100085F0100085F0100085F01000810
:100050005F0100085F0100085F0100085F01000800
:100060005F0100085F0100085F0100085F010008F0
:100070005F0100085F0100085F0100085F010008E0
:100080005F0100085F0100085F0100085F010008D0
:100090005F0100085F0100085F0100085F010008C0
:1000A0005F0100085F0100085F0100085F010008B0
:1000B0005F010008194400085F0100085F010008A3
:1000C0005F0100085F0100085F0100085F01000890
:1000D0005F0100085F0100085F0100085F01000880
:1000E0005F0100085F0100085F0100085F01000870
:1000F0005F0100085F0100085F0100085F01000860
:100100005F0100085F0100085F0100085F0100084F
:100110006D4600085F0100085F0100085F010008EC
:100120005F0100085F0100085F0100085F0100082F
:10013000DFF80CD000F052F80048004709620008D0
:10014000E02600200648804706480047FEE7FEE715
:10015000FEE7FEE7FEE7FEE7FEE7FEE7FEE7FEE777
:10016000D14300083101000840EA01039B0703D096
:1001700009E008C9121F08C0042AFAD203E011F8E6
:10018000013B00F8013B521EF9D27047D2B201E0A8
:1001900000F8012B491EFBD270470022F6E710B58C
:1001A00013460A4604461946FFF7F0FF204610BDE5
:1001B00030B50B46014600202022012409E021FA37
:1001C00002F59D4205D303FA02F5491B04FA02F534
:1001D0002844151EA2F10102F1DC30BD064C074D8A
:1001E00006E0E06840F0010394E807009847103407
:1001F000AC42F6D3FFF7A0FF88680008A8680008A3
:100200000146014801F007BA4C000020014801F006
:10021000F5B900004C00002010B500F00FF80128DF
:1002200001D0012010BDBDE810400249024801F094
:100230003FBB0000E00100204C00002008B5012079
:1002400000909DF8000008BD7CB5DDE90654CDE9BD
:1002500000540146034801F0A5FB08B101207CBD14
:1002600000207CBD4C0000207CB5DDE90654CDE9C2
:1002700000540146034801F07DFC08B101207CBD1B
:1002800000207CBD4C000020FEE70022AFF3008080
:1002900030B5044601200D4B5D7A012D15D8587AF2
:1002A00000251D54587A03EB800044605C7A03F10A
:1002B00008002254587A421C5A72303008703A2092
:1002C00048702F208870CD70002030BDD4060020EB
:1002D00031B500F023F9044600F020F90099001B25
:1002E0008842F9D338BD00002DE9F84F00230024DF
:1002F000DFF8DC914FF00F0809F1040A0AF1040B52
:100300000BF1040E0127A7400A683A40BA4275D1A2
:10031000DFF8C0C14D68A5EB0C0665452BD00DDCA0
:10032000032D34D005DC35B3012D19D0022D2FD18A
:100330001BE0112D16D0122D2AD119E0B6F5881F19
:1003400019D006DCB6F5803F15D0B6F5801F1FD159
:1003500011E0B6F5001F0ED0B6F5041F18D10AE063
:10036000CB6815E0CB681B1D12E0CB6808330FE0AB
:10037000CB680C330CE08B6823B1012B04D008232D
:10038000476105E0042303E00823076100E0002340
:10039000FF2A01D8054601E000F1040502D84FEA22
:1003A000840603E0A4F108064FEA86062F6808FADF
:1003B00006FC27EA0C0703FA06F647EA06072F6051
:1003C0004D68ED007ED5444DAE6946F00106AE6144
:1003D000AD6905F001050095404D24F0030677193D
:1003E000BE68A5072D0F08FA05FC26EA0C06DFF803
:1003F000F0C0604503D14FF0000C25E062E0DFF86B
:10040000E4C0604502D14FF0010C1DE0DFF8D8C018
:10041000604502D14FF0020C16E0DFF8D0C0604515
:1004200002D14FF0030C0FE0DFF8C4C0604502D1E9
:100430004FF0040C08E0DFF8BCC0604502D14FF07B
:10044000050C01E04FF0060C0CFA05FC4CEA060C1A
:10045000C7F808C04D68ED0305D5D9F8005015431D
:10046000C9F8005004E0D9F800509543C9F800508D
:100470004D68AD0305D5DAF800501543CAF80050B1
:1004800004E0DAF800509543CAF800504D68ED02D8
:1004900005D5DBF800501543CBF8005004E0DBF83D
:1004A00000509543CBF800504D68AD0205D5DEF8FD
:1004B00000501543CEF8005004E0DEF8005095439C
:1004C000CEF80050641C102CFFF41CAFBDE8F88F70
:1004D0000004014000001110001002400000014023
:1004E00000080140000C01400010014000140140D0
:1004F00000180140001C01408068084201D0012022
:10050000704700207047C2684A40C2607047002AA6
:1005100001D001617047090401617047014800681A
:10052000704700001000002002480168491C01606B
:10053000704700001000002010B50748016841F026
:1005400010010160032000F07BF8002000F006F8A5
:1005500000F016F8002010BD0020024010B504463F
:1005600000F00AFB4FF47A72B0FBF2F001F00BFEE0
:1005700000222146501E00F043F8002010BD00006C
:1005800008B51748816941F001018161806900F077
:1005900001000090032000F053F8002211466FF094
:1005A0000B0000F02DF8002211466FF00A0000F059
:1005B00027F8002211466FF0090000F021F8002210
:1005C0001146101F00F01CF800221146501E00F0CA
:1005D00017F80448416821F0E061416008BD00005F
:1005E000001002400000014000F01F020121914074
:1005F0004009800000F1E020C0F8001170470000C1
:10060000F0B40D460D4B1B68C3F30223C3F107047E
:10061000042C00D90424191D072901D2002300E06D
:10062000DB1E012606FA04F1491E294099409E402E
:10063000761E16403143F0BC03F034B90CED00E0F7
:1006400000F00701054A10684FF6FF03184040EA22
:100650000120034908431060704700000CED00E0E2
:100660000000FA050120010291FAA1F1024AB1FA53
:1006700081F142F82100704700000E4210B586B0AB
:1006800001463CA090E81C00C068CDE9033402920A
:1006900005903CA00068019000203B4C042946D006
:1006A00015DC01294DD002290FD100F095FA6168BF
:1006B0004FF4804292FAA2F201F44041B2FA82F27F
:1006C000D140491C4900B0FBF1F006B010BD08292B
:1006D00032D01029F9D161682268D201F5D54FF4E2
:1006E000701292FAA2F201F47010B2FA82F2D040C3
:1006F00002AA105CC90310D561684FF4003292FA67
:10070000A2F201F40031B2FA82F2D14001AA515CA6
:100710001E4AB2FBF1F1484301E01D4948436168BC
:100720004902D2D440000321B0FBF1F0CDE706B07E
:10073000BDE8104000F066BA06B0BDE8104000F019
:1007400061BA216AC1F30122012A03D1890701D5C7
:10075000D003BAE7022A05D1616A890702D549F6B2
:100760004040B2E7032AB0D121688903ADD54FF2EA
:100770002440AAE702030405060708090A0B0C0D2A
:100780000E0F1010010200000010024000127A004B
:1007900000093D002DE9F8430446464F2078C00784
:1007A00074D0F86940F08050F861F86900F080502A
:1007B0000090414D286840F480702860FFF7AEFE3D
:1007C000064607E0FFF7AAFE801B642802D9032033
:1007D000BDE8F8832868C005F4D5386AA18800F41C
:1007E000407001F44071884250D0386A20F4407063
:1007F0004FF4803292FAA2F1B1FA81F18B002F49C5
:100800004FF001080B44C3F8008492FAA2F2B2FA46
:1008100082F201EB82010023C1F8003438628007C4
:100820002ED5FFF77BFE064641F28839022506E009
:10083000FFF774FE801B484501D90320C8E795FAED
:10084000A5F0B0FA80F040F040014046B8EB511FEF
:1008500001D139680BE095FAA5F1B1FA81F141F0C7
:100860004001B5EB511F01D1396A00E0796A95FA70
:10087000A5F2B2FA82F202F01F0290400142D7D0F4
:10088000386A616820F44070084338622078800735
:1008900005D57868A16820F4404008437860207846
:1008A000C00605D57868616920F480000843786047
:1008B00000208DE70010024000700040000042421E
:1008C0002DE9F04704460F46DFF8A492D9F800005E
:1008D000A84D00F007010120430446064FF0020C2A
:1008E00041F28838B9426FD2D9F8001021F00701DF
:1008F0003943C9F80010D9F8001001F00701B942D6
:1009000001D0BDE8F0872178890705D56968A2681C
:1009100021F0F001114369602178C90761D0616855
:1009200001290BD002291FD09CFAACF2B2FA82F254
:1009300042F0200252092DD02A682CE093FAA3F24B
:10094000B2FA82F242F02002520901D02A6800E095
:100950006A6A93FAA3F3B3FA83F303F01F03984090
:10096000024223D10120CCE796FAA6F2B2FA82F233
:1009700042F02002520901D02A6800E06A6A96FA21
:10098000A6F3B3FA83F303F01F03984002420DD19C
:100990000120B6E76A6A9CFAACF3B3FA83F303F07A
:1009A0001F039840024201D10120AAE7686820F0A5
:1009B000030008436860FFF7B1FD06466068012840
:1009C0000AD0022815D021E025E0FFF7A7FD801B03
:1009D000404501D9032094E76868C0F381000128ED
:1009E000F3D1ADE0FFF79AFD801B404501D903200C
:1009F00087E76868C0F381000228F3D1A0E0FFF721
:100A00008DFD801B404501D903207AE7686810F00E
:100A10000C0FF4D194E02178890705D56968A268A4
:100A200021F0F001114369602178C90779D061682C
:100A300001290BD002291FD09CFAACF2B2FA82F243
:100A400042F0200252092DD02A682CE093FAA3F23A
:100A5000B2FA82F242F02002520901D02A6800E084
:100A60006A6A93FAA3F3B3FA83F303F01F0398407F
:100A7000024223D1012044E796FAA6F2B2FA82F2AA
:100A800042F02002520901D02A6800E06A6A96FA10
:100A9000A6F3B3FA83F303F01F03984002420DD18B
:100AA00001202EE76A6A9CFAACF3B3FA83F303F0F1
:100AB0001F039840024201D1012022E7686820F01C
:100AC000030008436860FFF729FD064660680128B7
:100AD00009D0022814D020E0FFF720FD801B4045FC
:100AE00001D903200DE76868C0F381000128F3D124
:100AF00017E0FFF713FD801B404501D9032000E7F5
:100B00006868C0F381000228F3D10AE0FFF706FD10
:100B1000801B404501D90320F3E6686810F00C0FF4
:100B2000F4D1D9F8000020F007003843C9F80000DC
:100B3000D9F8000000F00700B84201D00120E0E63B
:100B40002078400705D56868E16820F4E060084334
:100B500068602078000706D56868216920F4605035
:100B600040EAC10068600020FFF7F8FC0020C8E6FA
:100B7000002002400010024000B500F043F8084990
:100B80004968F02292FAA2F201F0F001B2FA82F280
:100B9000D140044A515CC8400349086000BD0000D0
:100BA00000100240346700081800002000B5FFF76D
:100BB000E3FF074949684FF4E06292FAA2F201F4B8
:100BC000E061B2FA82F2D140024A515CC84000BDF5
:100BD000001002403467000800B5FFF7CDFF074959
:100BE00049684FF4605292FAA2F201F46051B2FAED
:100BF00082F2D140024A515CC84000BD0010024060
:100C00003467000810B585B01AA0D0E90031D0E9EA
:100C10000220CDE90131CDE903201AA0006800903F
:100C2000194B5968194801F00C02042A1DD0082AF2
:100C30001BD14FF4701494FAA4F401F47012B4FAB6
:100C400084F4E24001ACA25CC90310D559684FF4AA
:100C5000003393FAA3F301F40031B3FA83F3D940DC
:100C60001DF80110B0FBF1F0504305B010BD08486D
:100C70005043FAE702030405060708090A0B0C0DA6
:100C80000E0F1010010200000010024000127A0046
:100C900000093D002DE9F84F0446F94D20784FF04A
:100CA0000106C00775D068687704C0F38100012889
:100CB00007D06868C0F3810002281DD16868C003AE
:100CC0001AD597FAA7F0B0FA80F040F0200040095A
:100CD00001D0286800E0686A97FAA7F1B1FA81F1BB
:100CE00001F01F0206FA02F1084252D060680028A3
:100CF0004FD10120BDE8F88F286820F480302860AB
:100D0000286820F480202860FFF708FC804607E070
:100D1000FFF704FCA0EB0800642801D90320E9E7F1
:100D200097FAA7F0B0FA80F040F02000400901D017
:100D3000286800E0686A97FAA7F1B1FA81F101F03A
:100D40001F0106FA01F10842E2D16068B0F5803F68
:100D500011D0A8B1B0F5A02F1CD0286820F48030A5
:100D60002860286820F4802028606068C8B3FFF7F6
:100D7000D5FB80461FE0286840F480302860F4E707
:100D8000286820F480302860286820F480202860BB
:100D9000EBE748E0286840F480202860286840F4A9
:100DA00080302860E1E7FFF7B9FBA0EB080064287A
:100DB00001D903209EE797FAA7F0B0FA80F040F03F
:100DC0002000400901D0286800E0686A97FAA7F17E
:100DD000B1FA81F101F01F0106FA01F10842E2D0F7
:100DE00021E0FFE7FFF79AFB804607E0FFF796FB5D
:100DF000A0EB0800642801D903207BE797FAA7F04D
:100E0000B0FA80F040F02000400901D0286800E0EE
:100E1000686A97FAA7F1B1FA81F101F01F0106FAA9
:100E200001F10842E2D12078DFF8588280074FF0C4
:100E3000000B4FF0020732D568684FF0F80A10F047
:100E40000C0F07D06868C0F38100022828D16868B9
:100E5000C00325D497FAA7F0B0FA80F040F0200044
:100E6000400901D0286800E0686A97FAA7F1B1FA52
:100E700081F101F01F0106FA01F1084204D0206956
:100E8000012801D0012035E728689AFAAAF26169A1
:100E9000B2FA82F220F0F8009140084328605CE04A
:100EA000206990B396FAA6F0B0FA80F048F8206076
:100EB000FFF734FB814607E0FFF730FBA0EB0900AA
:100EC000022801D9032015E797FAA7F0B0FA80F0BD
:100ED00040F02000400901D0286800E0686A97FAD5
:100EE000A7F1B1FA81F101F01F0106FA01F1084200
:100EF000E2D028689AFAAAF26169B2FA82F220F086
:100F0000F80091400843286027E0FFE796FAA6F032
:100F1000B0FA80F048F820B0FFF700FB814607E008
:100F2000FFF7FCFAA0EB0900022801D90320E1E653
:100F300097FAA7F0B0FA80F040F02000400901D005
:100F4000286800E0686A97FAA7F1B1FA81F101F028
:100F50001F0106FA01F10842E2D12078000770D59E
:100F6000A069C0B396FAA6F0B0FA80F008EB800052
:100F7000C0F88064FFF7D2FA814607E0FFF7CEFAA7
:100F8000A0EB0900022801D90320B3E697FAA7F0E5
:100F9000B0FA80F040F06000B6EB501F01D1286835
:100FA0000BE097FAA7F0B0FA80F040F06000B7EBE2
:100FB000501F01D1286A00E0686A97FAA7F1B1FAD8
:100FC00081F101F01F0206FA02F10842D6D0012099
:100FD000FFF77EF935E0FFE796FAA6F0B0FA80F069
:100FE00008EB8000C0F880B4FFF798FA814607E06C
:100FF000FFF794FAA0EB0900022801D9032079E653
:1010000097FAA7F0B0FA80F040F06000B6EB501FFE
:1010100001D128680BE097FAA7F0B0FA80F040F011
:101020006000B7EB501F01D1286A00E0686A97FAA8
:10103000A7F1B1FA81F101F01F0206FA02F10842AC
:10104000D6D12078400770D5E86940F08050E8613B
:10105000E86900F080500090DFF82CA0DAF800007A
:1010600040F48070CAF80000FFF758FA81460DE09E
:10107000FFF754FAA0EB0900642807D9032039E6EA
:10108000001002400000424200700040DAF8000008
:10109000C005EDD5286A20F001002862286A20F0FA
:1010A00004002862FFF73AFA814641F2883A07E0E5
:1010B000FFF734FAA0EB0900504501D9032019E6E7
:1010C00097FAA7F0B0FA80F040F04000B6EB501F5E
:1010D00001D128680BE097FAA7F0B0FA80F040F051
:1010E0004000B7EB501F01D1286A00E0686A97FA08
:1010F000A7F1B1FA81F101F01F0106FA01F10842EE
:10110000D6D1E068012811D0A8B105281CD0286AE2
:1011100020F001002862286A20F004002862E068BC
:10112000C8B3FFF7FBF981461FE06EE0286A40F084
:1011300001002862F3E7286A20F001002862286A8B
:1011400020F004002862EAE7286A40F004002862E0
:10115000286A40F001002862E1E7FFF7DFF9A0EB21
:101160000900504501D90320C4E597FAA7F0B0FA69
:1011700080F040F04000B6EB501F01D128680CE031
:1011800097FAA7F0B0FA80F040F04000B7EB501F9C
:1011900002D1286A01E00BE0686A97FAA7F1B1FA78
:1011A00081F101F01F0206FA02F10842D5D02CE0CD
:1011B000FFF7B4F9814607E0FFF7B0F9A0EB0900AB
:1011C000504501D9032095E597FAA7F0B0FA80F0D1
:1011D00040F04000B6EB501F01D128680BE097FAB1
:1011E000A7F0B0FA80F040F04000B7EB501F01D1FB
:1011F000286A00E0686A97FAA7F1B1FA81F101F074
:101200001F0206FA02F10842D6D1E06980B369688C
:10121000C1F38101022970D04FF080794FF000773F
:10122000022809D099FAA9F0B0FA80F048F820B065
:10123000FFF774F9044668E099FAA9F0B0FA80F073
:1012400048F820B0FFF76AF9824607E0FFF766F931
:10125000A0EB0A00022801D903204BE597FAA7F07A
:10126000B0FA80F040F02000400902D0286801E088
:1012700060E0686A97FAA7F1B1FA81F101F01F0105
:1012800006FA01F10842E1D1206AB0F5803F05D1AC
:101290006868A16820F4003008436860D4E9080158
:1012A0000843696821F474110843686099FAA9F049
:1012B000B0FA80F048F82060FFF730F9044606E005
:1012C000FFF72CF9001B022801D9032012E597FA39
:1012D000A7F0B0FA80F040F02000400901D0296862
:1012E00000E0696A97FAA7F0B0FA80F000F01F00FA
:1012F00006FA00F00142E3D01CE01DE0FFF70EF912
:10130000001B022801D90320F4E497FAA7F0B0FAF1
:1013100080F040F02000400901D0296800E0696AAF
:1013200097FAA7F0B0FA80F000F01F0006FA00F07C
:101330000142E3D10020DDE40120DBE470B5044686
:10134000002C03D0607C002610B105E0012070BDA8
:101350002674204600F04CF802206074204600F00D
:101360002FF9042510B16574012070BD204602F0EC
:10137000B2FA10B16574012070BD2068416821F097
:1013800007014160A06820B11848016821F00101FF
:1013900001601648001F0168A26821F460711143C2
:1013A00001606068411C04D10120FFF767F998B122
:1013B000401E21688A6822F00F0242EA10428A60C9
:1013C0002168CA6860F30F02CA60204602F09DFAE5
:1013D00028B16574012070BD6574012070BDE6738D
:1013E00001206073A0736074002070BD306C0040F9
:1013F00008B500680C49884215D1FFF733F90B484E
:10140000C16941F00061C161C06900F000600090F5
:101410000120C10391FAA1F1054AB1FA81F102EB71
:101420008101C1F8000408BD0028004000100240FE
:10143000000042422DE9F04104460D46002C3FD009
:10144000E5B3207C01283DD001262674022060747B
:10145000AAB3E87802F036FAE073687802F032FA5C
:101460006073A87802F02EFAA073A27B617BE07B08
:1014700002F07CFA20732870204602F067FA4FF4DD
:101480006161B0FBF1F10025182936D91822B1FBB2
:10149000F2F1A1EB011101EB4101C1EB011100EBF4
:1014A000C1173946204602F0ABFA4FF0040890B15C
:1014B00084F8118025740120BDE8F08100E003E08C
:1014C0000120F9E70220F7E7E878E07368786073B5
:1014D000A878A073C9E7204602F031FA411C0CD06D
:1014E000B8420AD207490144204602F072FA20B1FC
:1014F00084F8118025740120DEE7667425740020CD
:10150000DAE70000805101002DE9F04104460D4664
:10151000002C28D03DB3207C012826D0012626743B
:10152000022060741AB3287802F0CCF94FF461619C
:1015300000FB01F7687802F0C5F9C0EB001007EB7B
:101540008007A87802F0BEF93D182946204602F02F
:1015500057FA00274FF00408A8B184F811802774C7
:101560000120BDE8F0810120FBE70220F9E729789E
:101570004FF4616041436878C0EB001001EB8000DC
:10158000A9784518E1E72068416821F0050141602C
:10159000204602F0D4F9411C0CD0A8420AD20749D7
:1015A0000144204602F015FA20B184F81180277416
:1015B0000120D6E7667427740020D2E7805101002D
:1015C00070B50446002C0AD02068416821F008015B
:1015D0004160FEF7A3FF05464FF47A7608E001204C
:1015E00070BDFEF79BFF401BB04201D9032070BDC8
:1015F000206840680007F4D5002070BD10B502F0E7
:1016000089FB042803D0FF2803D0012010BD00204F
:1016100010BD022010BD2DE9F047002790F82020D2
:1016200081F85620828CA1F85420826A120E930908
:101630000B70C2F383034B7002F003028A70826A5C
:10164000120CCA70028D120A0A7190F828204A7191
:10165000C26A120E4FF6FF7909EA0212CA80C26A04
:10166000C2F30742CB8843EA1213CB8002F00F0289
:101670000A72828DC2F30722D3094B72C2F3801320
:101680008B72C2F34013CB72C2F300130B730024AE
:101690004C73036A4FF00108002B7ED0012BFCD065
:1016A000022B7BD02927C2F380134B769206520E71
:1016B0008A761C3110F8302F11F8023D43EAD2131C
:1016C0000B7002F07F024A704268120ED3098B70D1
:1016D000C2F34113CB70C2F382030B719207120F56
:1016E0004A714268C2F307424B7943EA92134B7145
:1016F000C2F3401301F8063F4C7002F001028A70F9
:101700008288C2F30722D309CB70C2F380130B7116
:10171000C2F340134B71C2F300138B71C2F3810308
:10172000CB7102F003020A72027952084A7281F800
:101730000A808268120E0A738268120C09EA022279
:10174000CA810289C2F30722CB891343CB81027A73
:1017500012060A61C268120E0B6943EA02420A616C
:10176000C268C2F307420B6943EA02220A61828916
:10177000C2F307220B6913430B61027B0A750269EE
:10178000120E4A750269120C12068A61028AC2F3AD
:1017900007228B6943EA024201E024E066E08A61A5
:1017A000027C8B6943EA02228A614269120E8B69CC
:1017B00013438B614269C2F307420B7F43EA121362
:1017C0000B771207120DCA83828AC2F30722CB8BD2
:1017D0001343CB83007D400881F8200081F82180ED
:1017E0003846BDE8F0879207120D0A6190F82C2068
:1017F0000B6943EA82020A61026B120E0B6943EA2B
:1018000092130B61C2F3C2030B7502F007024A7513
:10181000026BC2F3074253098B75C2F38203CB7587
:101820009207520F0A76028EC2F307220B7E43EA1A
:10183000D2130B760B695B1C0D7EAD1C08FA05FC00
:10184000A3FB0C5A4FEAEC7604FB0CAC03FB06C678
:1018500091F808C008FA0CF30B65A5FB03CA06FB58
:1018600003A305FB0433C1E912C31CE790F82C2045
:101870009206920A0A61026B120E0B6943EA022277
:101880000A61026BC2F307420B6913430B61028EBC
:10189000C2F307220B695B1C44F10005ED0445EA25
:1018A0005335DB04C1E912354FF400730B65FAE6DA
:1018B00070B58AB005460E4600240994182103A885
:1018C000FEF76BFC284600F041F80394049405945D
:1018D00006940794C32008900094CDE90140234664
:1018E00022462146286802F0C5F8284602F04AFB45
:1018F00009909DF8240018B19DF824000AB070BD2D
:10190000284602F014FA09909DF8240010B19DF8C1
:101910002400F3E731462846FFF77DFE09909DF845
:10192000240038B9B6F8540000230204284602F017
:10193000DDFB0990D5E9051228698DE807000FCD78
:1019400002F098F89DF82400D8E7000030B585B083
:101950000068104988421BD10F48416941F48061F9
:101960004161406900F4806000904FF4885001901C
:10197000022502950324049401A90848FEF7B4FC4B
:10198000042001900295049401A90548FEF7ACFCDF
:1019900005B030BD00800140001002400010014041
:1019A000001401402DE9F04F8BB00446DDE9149896
:1019B0000D4616461F46142106A8FEF7EEFB182119
:1019C0006846FEF7EAFB21680020C862216A4FF4EE
:1019D000007A022903D1D146760A46EAC756CDF8E5
:1019E000189010210791402108910746099008019D
:1019F0000A9006A9206802F059F81021204602F04A
:101A000081F800282AD14FF0FF3BCDF800B008FB49
:101A100009F00190902002904FF00209CDF80C904F
:101A20000497012005906946206802F000F8B8F19B
:101A3000010F02D91220079001E0112007900696AD
:101A400006A9206802F032F8B8F1010F1DD9122161
:101A5000204602F057F8074687B138460BB0BDE87C
:101A6000F08F406B000409D50026206802F01BF8B7
:101A700045F82600761C082EF7D320352068416BE8
:101A800040F22A321142ECD01AE01121204602F035
:101A900039F8074638000DD0E0E7406B000409D55F
:101AA0000026206801F0FFFF45F82600761C082E6E
:101AB000F7D320352068416B40F22A621142ECD006
:101AC0002068406BC0050CD5B8F1010F09D9206A18
:101AD00018B1012801D0022803D1204600F030F8C7
:101AE00007462168486B000703D508208863042057
:101AF000B4E7486B800703D54846C1F83890ADE796
:101B0000486B800603D5202088630620A6E7486B33
:101B1000800508D5C1F838A007209FE701F0C3FF72
:101B200001C5ABF1010B2068416B890202D5BBF105
:101B3000000FF3D1216840F2FF50886338468DE7EB
:101B400010B586B00446142101A8FEF726FB00203C
:101B500001900C210291402103910490080105900D
:101B600001A9206801F0A2FF0C21204601F0CAFF64
:101B700006B010BD2DE9F04F8DB00646DDE916A97F
:101B80000C4617469846142108A8FEF706FB1821B4
:101B900002A8FEF702FB0025002001903168C86210
:101BA000316A4FF4007B022903D1DA467F0A47EA03
:101BB000C857CDF820A01021099140210A918046F4
:101BC0000B9008010C9008A9306801F06FFF1021FC
:101BD000304601F097FF002870D1B9F1010F02D90A
:101BE0001920099001E018200990089708A9306889
:101BF00001F05CFFB9F1010F04D91921304601F061
:101C000081FF03E01821304601F07CFF002855D108
:101C100009FB0AF7401E0290039790200490CDF82C
:101C20001480CDF818800120079002A9306801F0D7
:101C3000FEFEB9F1010F2BD85DE0406B400427D5C3
:101C4000781B202816D2810706D04FEA900A0AF1A5
:101C5000010A4FF000080AE04FEA900AF9E721462E
:101C6000306801F033FF241D2D1D08F10108D04517
:101C70000ED2F4E74FF0000804EB8801306801F061
:101C800025FF08F10108B8F1080FF5D320342035FD
:101C90003068416B40F21A321142CED031E0406BD5
:101CA000400428D5781B202817D2810707D04FEA97
:101CB000900A0AF1010A4FF000080BE038E04FEA01
:101CC000900AF8E72146306801F000FF241D2D1D21
:101CD00008F10108D0450ED2F4E74FF0000804EBFC
:101CE0008801306801F0F2FE08F10108B8F1080F30
:101CF000F5D3203420353068416B40F21A6211422E
:101D0000CDD03068406BC0050BD5B9F1010F08D9B3
:101D1000306A18B1012801D0022802D13046FFF7FD
:101D20000FFF3168486B000705D508208863042041
:101D30000DB0BDE8F08F486B800702D502208863A4
:101D4000F6E7486BC00603D5102088630520EFE74F
:101D5000486B800503D5C1F838B00720E8E740F2AA
:101D6000FF50886301A9304602F062F803E001A940
:101D7000304602F05DF80028DAD19DF804100729FA
:101D8000F5D00629F3D0D3E710B50446002C03D0D4
:101D900094F8510010B104E0012010BD204600F07D
:101DA00039F8022084F851002068016821F04001D0
:101DB0000160D4E901010843D4E903121143084347
:101DC00061690843218B01F400710843E16908430C
:101DD000216A0843A16A084321680860A0690421B8
:101DE00001EA1040616A0843216848602168E06A9E
:101DF00008612068C16921F40061C16104490020C3
:101E000008706065012084F85100002010BD0000BA
:101E10001400002010B586B00068114988421CD11A
:101E20001048816941F480518161806900F48050DB
:101E30000190A020029002200390032005900A4CFC
:101E400002A92046FEF750FA402102910021039199
:101E5000049102A92046FEF747FA06B010BD000023
:101E60000030014000100240000801402DE9F84315
:101E70000446DDF820800026009694F851000128E1
:101E800006D094F85100222802D00220BDE8F88341
:101E900069B162B15BB194F85000012809D0012703
:101EA00084F8507094F85100012804D006E0012015
:101EB000ECE70220EAE7322084F851006665A2636D
:101EC000A387E3872163A386E386A664E664A06A0A
:101ED0004FF40055A84209D12068016821F400514F
:101EE00001602068016841F40051016020680168C8
:101EF000490603D4016841F040010160E0684FF4F5
:101F00008271B0F5006F08D06068002875D08842F3
:101F100002D1E08E01287CD084E0606820B1884244
:101F20000CD1E08E012809D1206B21680088C8609F
:101F3000206B801C2063E08E401EE086E08EE8BBB4
:101F4000A06AA84204D12068016841F48051016070
:101F5000434600220121204602F090F908B10320F7
:101F600094E72068C068A16B0880A06B801CA06308
:101F7000E08F401EE087B6E0434600220221204663
:101F800002F07CF908B1032080E7206B216800880B
:101F9000C860206B801C2063E08E401E80B2E0860B
:101FA00038B9A06AA84204D12068016841F4805180
:101FB0000160002243460121204600E00EE002F0CD
:101FC0005DF908B1032061E72068C068A16B088053
:101FD000A06B801CA063E08F401EE087E08E00288D
:101FE000CAD1606800287ED14346002201212046E4
:101FF00002F044F910B1032048E70AE02068C06805
:10200000A16B0880A06B801CA063E08F401EE0875E
:1020100069E0206B411C216321680078C860E08E74
:10202000401EE086E08EE8BBA06AA84204D120688A
:10203000016841F48051016043460022012120469D
:1020400002F01CF908B1032020E72068C068A16BEA
:102050000870E08F401EE08745E0434600220221E1
:10206000204602F00BF908B103200FE7206B411C5A
:10207000216321680078C860E08E401E80B2E0864F
:1020800038B9A06AA84204D12068016841F480519F
:102090000160434600220121204602F0EFF810B112
:1020A0000320F3E608E02068C168A06B421CA2632D
:1020B0000170E08F401EE087E08E0028CDD160687F
:1020C00088B9434600220121204602F0D7F808B122
:1020D0000320DBE62068C168A06B421CA26301708C
:1020E000E08F401EE087A06AA84211D1434600223B
:1020F0000121204602F0C2F828B1606D40F00200D4
:1021000060650320C2E62068C0680090BDF800004A
:10211000434601228021204602F0B0F828B1606DCC
:1021200040F0100060650320B0E684F85170A06AAA
:10213000A84215D120688168C943C90610D4616DD1
:1021400041F002016165016821F4005101602068DD
:10215000016841F40051016084F85060012095E667
:1021600084F85060002091E64FF0E021042804D06C
:10217000086920F0040008617047086940F0040015
:1021800008617047704710B5401EB0F1807F01D3E1
:10219000012010BD4FF0E02460610F21601701F0B5
:1021A00081FB0020A06107202061002010BD10B538
:1021B000FFF7E8FF10BD7047704730B590F8382042
:1021C000012A20D0012380F83830022280F83920FB
:1021D0000268546824F070045460026854680D6802
:1021E0002C4354600268946824F080049460026870
:1021F000946849680C43946080F83930002180F875
:102200003810002030BD022030BD10B50446002C2F
:1022100003D094F8390010B107E0012010BD002070
:1022200084F83800204600F00DF8022084F83900C8
:10223000211D206802F0F6F8012084F83900002002
:1022400010BD000000B585B00068124988421ED15B
:102250001148C16941F00201C161C06900F002008A
:1022600000904020019000200290039001A90B48AB
:10227000FEF73AF80A48416841F4406141600022A3
:1022800011461D20FEF7BCF91D20FEF7ADF905B083
:1022900000BD00000004004000100240001001409A
:1022A000000001400168CA6842F00102CA6000688B
:1022B000016841F0010101600020704770B50446DB
:1022C00094F83800012817D0012584F838500220EE
:1022D00084F839002068826822F0770222F47F4275
:1022E0008260086850283AD00DDC20285FD005DCD9
:1022F000A0B3102864D155E0022070BD30285BD017
:1023000040285DD13FE0602833D070280CD0B0F574
:10231000805F03D0B0F5005F52D113E02068816880
:1023200021F0070181604BE0CB68D1E901212068F1
:1023300002F0BCF82068816821F0770141F0770154
:1023400081603DE0CB68D1E90121206802F0AEF860
:102350002068816841F48041816031E01DE0CA68F5
:102360004968206802F0B4F85021206802F0A8F80B
:1023700026E0CA684968206802F0F2F86021206807
:1023800002F09EF81CE0CA684968206802F0A0F8D4
:102390004021206802F094F812E00021206802F049
:1023A0008FF80DE01021206802F08AF808E0202163
:1023B000206802F085F803E03021206802F080F800
:1023C000383465700020207070BD704770B50446C9
:1023D0000D4694F83800012820D0012684F8386092
:1023E000022084F83900DAB1042A2AD0082A3AD027
:1023F000D5E90012EB68206802F0F8F82068C1699E
:1024000021F44061C1612068C169AA6841EA0221E2
:10241000C161383466700020207070BD022070BD2C
:10242000D5E90012EB68206802F064F82068816941
:1024300021F00C01816120688169AA6811438161E2
:10244000E7E7D5E90012EB68206802F09BF8206806
:10245000816921F44061816120688169AA6841EA4B
:1024600002218161D5E7D5E90012EB68206802F00E
:10247000A4F82068C16921F00C01C1612068C1691C
:10248000AA681143C161C4E710B50446002C03D00B
:1024900094F8390010B107E0012010BD002084F845
:1024A0003800204600F00CF8022084F83900211D85
:1024B000206801F0B7FF012084F83900002010BD2A
:1024C000704770B50446206801694FF00005C943A4
:1024D000890716D4C168C943890712D4E91E01616E
:1024E0000120207620688069800703D02046FFF70E
:1024F0006CFF05E0204600F09BF8204600F099F8BC
:10250000257620680169C943490718D4C168C943C1
:10251000490714D46FF0040101610220207620687D
:10252000806910F4407F03D02046FFF74EFF05E09E
:10253000204600F07DF8204600F07BF825762068E4
:102540000169C943090717D4C168C943090713D4EE
:102550006FF008010161042020762068C0698007BF
:1025600003D02046FFF731FF05E0204600F060F879
:10257000204600F05EF8257620680169C943C90647
:1025800018D4C168C943C90614D46FF010010161A1
:10259000082020762068C06910F4407F03D02046D0
:1025A000FFF713FF05E0204600F042F8204600F058
:1025B00040F8257620680169C943C90708D1C16878
:1025C000C943C90704D1891E0161204600F032F8D1
:1025D00020680169C943090609D4C168C9430906CD
:1025E00005D46FF0800101612046FFF7E4FD20680B
:1025F0000169C943490609D4C168C943490605D4DC
:102600006FF040010161204600F01AF8206801696E
:10261000C94389060BD4C168C943890607D46FF042
:10262000200101612046BDE87040FFF7C5BD70BDC7
:1026300070477047014901200870704798060020D4
:102640007047704738B5044620680168C1F300013F
:10265000C26802F48072002904D01AB1E16B41F023
:102660000101E1630168C1F34002416901F0010128
:1026700022B119B1E26B42F00402E2630268C2F3D4
:10268000800222B119B1E26B42F00202E2630268F9
:10269000C2F3C00222B119B1E16B41F00801E1635C
:1026A0000168C1F34011C06800F0200019B110B1F9
:1026B000204601F0F6FF20680168C1F3C011C06830
:1026C00000F0800019B110B1204602F0C9F820686E
:1026D0000168C1F38011C06800F0400019B110B169
:1026E000204601F0C9FFE06B002809D0206801688E
:1026F00040680090012084F839002046FFF7A1FFD0
:1027000038BD70B50446002C04D094F8390000257B
:1027100010B106E0012070BD84F83850204600F06A
:1027200021F8022084F839002068C16821F40051A2
:10273000C160204602F00EF82068016921F4904142
:1027400001612068416921F02A0141612068C16866
:1027500041F40051C160E563012084F83900002094
:1027600070BD0000F0B585B023490068214F0024FA
:102770000A1502230326CD14B84220D1C86940F4BB
:102780000020C861C86900F4002000900192029303
:1027900004961A4E01A93046FDF7A6FD0195029454
:1027A000039401A93046FDF79FFD00221146342015
:1027B000FDF726FF3420FDF717FF05B0F0BD104FE1
:1027C000B842FAD1C86940F48020C861C86900F4F1
:1027D000802000900192029304960A4E01A930468F
:1027E000FDF782FD01950294039401A93046FDF79F
:1027F0007BFDE2E7004C0040001002400010014069
:1028000000480040000C014070472DE9F0410446AB
:102810000D46984694F83900012804D0222802D0A9
:102820000220BDE8F0819DB192B194F838000128F2
:1028300010D0012684F838600027E76394F8390047
:10284000222809D0122084F83900A284E2842EE0E4
:102850000120E6E70220E4E7322084F83900F4E7BB
:10286000401EE084A068B0F5805F08D04346002297
:102870008021204602F029F8A8B10320D1E7434681
:1028800000228021204602F020F808B10320C8E78A
:1028900028882168C0F308004860206908B16D1CD1
:1028A00005E0AD1C03E0216815F8010B4860E08CE1
:1028B0000028D5D1434600224021204602F005F8E9
:1028C00008B10320ADE794F83900322805D084F828
:1028D000396084F838700020A3E7222084F839009A
:1028E000F7E77047044890F87401002802D00120EF
:1028F00000F0A4B97047000038020020F8B5372076
:1029000000F076FF00F088FF00F0A6FF00F05EFE0A
:10291000114D3720291D00F077F9002440F25A3676
:1029200005EB8400016D036EB1FBF6F20093836D3D
:10293000601CC0B200F03CFF641C032CF0DB0748B5
:1029400090F87401002805D0BDE8F8400121084640
:1029500000F020BFF8BD00004467000838020020E6
:10296000044890F87401002803D00121084600F0C3
:1029700037BF70473802002010B50121022000F057
:10298000B5FE124C20610321022000F0AFFE606111
:102990000421022000F0AAFEA0610121022000F023
:1029A00023FE60600321022000F01EFEA0600421CF
:1029B000022000F019FEE06004F120020123111F43
:1029C000BDE81040022000F043BE00009806002041
:1029D000034890F87401002801D0FFF7CDBF70477D
:1029E0003802002010B504490448FDF74EFC0249A6
:1029F000491E087010BD000009000020C8670008CB
:102A0000F0B585B02848816941F010018161816984
:102A100001F010010091816941F02001816181691B
:102A200001F020010091816941F004018161816917
:102A300001F004010091816941F008018161806920
:102A400000F008000090194F00220C213846FDF7D5
:102A50005EFD174E002240F217313046FDF757FD5C
:102A6000012208213046FDF752FD0320019000218C
:102A70000291039101A93846FDF736FC0C20019024
:102A8000012502950224049401A93846FDF72CFC87
:102A900040F21F3101910295049401A93046FDF7DF
:102AA00023FC05B0F0BD0000001002400010014002
:102AB000000801407CB51348114901604FF0FF3117
:102AC000416000248460FEF739FC01258DF8045034
:102AD0008DF805408DF80640012201A90948FEF74E
:102AE00013FD8DF800508DF801508DF802508DF8CF
:102AF0000340012269460348FEF79CFC7CBD0000B0
:102B000000280040380000200648054901600021E7
:102B100041608160C1600161416181617047000075
:102B2000008001404C0000200C480B4901604FF42C
:102B30008271416000218160C16002220261012234
:102B40004261520282611822C26101624162816265
:102B50000A21C162FFF718B900300140AC00002023
:102B600010B58AB0134812490160002444608460A3
:102B7000C4600461FFF749FB4FF48050069006A93A
:102B80000C48FFF79BFB0B48FFF77EFC0494059471
:102B900004A90848FFF711FB00940120019002945A
:102BA0000394002269460348FFF710FC0AB010BDE9
:102BB00000040040040100200848074901604FF468
:102BC0001651416000218160C16001610C224261A7
:102BD0008161C161FFF795BD004C004040010020BC
:102BE0000848074901604FF4165141600021816097
:102BF000C16001610C2242618161C161FFF781BD49
:102C0000004800408001002010B500070FD009489F
:102C100090F8740158B10B4613220021012000F0F6
:102C2000F9FD054B13220021012000F0DBFC002000
:102C300010BD0000380200200804002010B5022852
:102C400001D200F04DF8002010BD00000A46C0EB94
:102C5000401000EB40010448806800EB8100B0F8B0
:102C60004810406CFDF753BC1C00002070B50546B1
:102C7000064E002070700024285D00F009F8641CE6
:102C8000E4B2042CF8D3707870BD00001C00002062
:102C900010B50021094C627880EA02035206120E38
:102CA00062701B0602D582F0070262704006000EB9
:102CB000491CC9B20829EED310BD00001C00002039
:102CC0000A46C0EB401000EB40010448806800EB6E
:102CD0008100B0F85810406DFDF719BC1C000020B1
:102CE000F8B5044600200090002C13D0134EC4EB1E
:102CF000441000EB4005B0682A2100EB850310F872
:102D00002520B033062A06D000913122694620469C
:102D100000F04AF9F8BD009121226946204600F0F2
:102D200043F984200090B068042200EB850303F58A
:102D3000B2736946204600F037F9F8BD1C00002048
:102D400070B51C4CC0EB401000EB4001A0680026A1
:102D500000EB81000125D0E90E329A4211D12830D2
:102D6000C6704671144A0261426100781070A06812
:102D700000EB8100C16B491CC16380F82D502570A8
:102D800070BD23785B1CDBB22370042B0BD890F84A
:102D900028001070A06800EB8100C16B491CC16362
:102DA00080F82D5070BD10F82B1F491C0170267043
:102DB00070BD00001C000020C005002070B5054655
:102DC0000121284600F02AF800240021284600F0BE
:102DD00025F8642000F046FA0121284600F01EF88C
:102DE000642000F03FFA641CE4B2022CEDD970BDFF
:102DF00010B504460121204600F010F800212046BD
:102E000000F00CF80A2000F02DFA0121204600F015
:102E100005F8BDE810400A2000F024BA0A46C0EBCD
:102E2000401000EB40010448806800EB8100B0F8DE
:102E30005010C06CFDF76BBB1C0000207CB500225D
:102E4000019200281FD0012929D0164BC0EB401257
:102E500002EB42029B680124042503EB820202F18B
:102E60006403022910D003290DD1516E21F4001101
:102E700021F4800141F4000151660195012201A96C
:102E8000009400F049F97CBD516E41F4C0015166D7
:102E90000195012201A9009400F03EF97CBDFFF7E5
:102EA000A7FF7CBD1C0000200149886000207047FE
:102EB0001C0000202DE9F0410646204DC6EB4610CF
:102EC00000EB4004A86800EB840090F82C10002967
:102ED00032D1006B0178304601F0BAF90746A86894
:102EE00000EB8400016B491C0163012180F82C1068
:102EF000A86800EB840080F828703046FFF720FFB8
:102F0000A86800EB8400406B78B1304600F088F987
:102F1000A86800EB840191F82A00012805D191F8F6
:102F20002910304601F094F90746A86800EB8400A8
:102F300090F82C000028DBD1BDE8F0811C000020B7
:102F400070B5174AC0EB401101EB41019268154D75
:102F500002EB810100EB400202EBC004096C45F872
:102F6000341005EBC4004FF4827141600021816090
:102F7000C160022202610122426152028261182272
:102F8000C2610162416281620721C162FEF7FCFEFB
:102F900055F83400016841F04001016070BD000047
:102FA0001C000020E80500202DE9FF4F85B00D46EC
:102FB00099460026002428215548FDF7EEF854488C
:102FC00028212830FDF7E9F8059800F0E3FA287881
:102FD0008DF80C004FF0FF0B8DF80DB08DF80EB092
:102FE0008DF80FB003AF0DF10808385D08F8040044
:102FF000641CE4B2042CF8D302A8FFF737FE8DF866
:1030000010000599DFF80CA1C1EB411101EB41055E
:10301000DAF80810039A01EB8501496B0A60087120
:10302000761DDAF8080000EB8500416B491D41630D
:1030300000210598FFF70AFE0598FFF73BFF0020E7
:103040000190DAF8080000EB850090F82B000CE006
:103050000199491C01910199322906D9059800F07E
:1030600099FA002009B0BDE8F08F0028F0D005984B
:1030700000F090FA002439E08DF80CB08DF80DB016
:103080008DF80EB08DF80FB00020395C08F80010F4
:10309000401CC0B20428F8D302A8FFF7E7FD8DF862
:1030A0001000DAF80810039A01EB8501496B0A60F9
:1030B0000871761DDAF8080000EB8500416B491DA8
:1030C00041630598FFF7F6FEDAF8080000EB85008B
:1030D00090F82B100029FDD0806B09EB840100686B
:1030E0000860059800F056FA641CE4B20798844220
:1030F000C2D301210598FFF7A9FD28210448FDF757
:103100004CF8034828212830FDF747F83046A9E756
:10311000980500201C0000202DE9FF4F83B0894650
:10312000DDF840A016461D460027002428213A4815
:10313000FDF733F8384828212830FDF72EF803989A
:1031400000F028FA76B170064FEA10680021039863
:10315000FFF77CFD0398DFF8C4B0C0EB401000EB34
:10316000400642E04FF00108F0E7FF208DF8040030
:1031700099F8000020448DF8050028788DF80600A5
:103180006878AD1C8DF80700002001AA6946135C21
:103190000B54401CC0B20428F9D36846FFF766FD03
:1031A0008DF80800DBF80810019A01EB8601496BE5
:1031B0000A6008717F1DDBF8080000EB8600416B98
:1031C000491D41630398FFF775FEBAF1010F07D15E
:1031D000DBF8080000EB860090F82B000028FDD0FB
:1031E000039800F0D7F9641CE4B24445BDD3012133
:1031F0000398FFF72BFD039800F0CCF9282106482F
:10320000FCF7CBFF044828212830FCF7C6FF07B0A5
:103210003846BDE8F08F0000980500201C00002013
:10322000C0EB401000EB40010C48806800EB8100CF
:10323000D0E90C128A4208D1002180F82A1080F8C7
:103240002C10074901634163704711F8012B80F886
:1032500029200163012180F82A1070471C000020FA
:10326000980500201549164A0968914204D14FF487
:1032700085614843000A13E0124A914204D140F2AA
:103280001E314843000A0BE00F4A914204D14FF42B
:1032900005714843000A03E04FF485714843000A72
:1032A000032800D3C01E0021084A03E053685B1CBA
:1032B0005360491C8142F9D3704700001800002078
:1032C00000D8B80500A24A04006CDC021C000020F3
:1032D00070B50546002D3BD02846FFF731FE012191
:1032E0002846FFF7B3FC4FF47A742046FFF7BAFF85
:1032F00048F6B800FFF7B6FF2846FFF75FFD204607
:10330000FFF7B0FF00212846FFF7A0FC6420FFF77D
:10331000A9FF01212846FFF799FC44F62060FFF73A
:10332000A1FF0C4EC5EB451000EB4004B068012234
:1033300000EB84035C3300212846FFF735FE0028AC
:1033400006D1B068002100F8241000EB8400417021
:1033500070BD00001C00002070B50446002C18D081
:1033600000212046FFF772FC4FF47A752846FFF7DC
:1033700079FF00212046FFF7A3FC2846FFF772FFE4
:1033800001212046FFF79CFC2846BDE87040FFF76E
:1033900069BF70BD02460020002A0ED0094BC2EB67
:1033A000421202EB42029B68012903EB820205D024
:1033B000022902D1D2F8F000C00B7047D2F8EC001D
:1033C000C00B70471C00002002460020002A0FD0CE
:1033D0000A4BC2EB421202EB42029B68012903EB4B
:1033E000820206D0022903D1B2F8F000C0F30E0029
:1033F0007047B2F8EC00C0F30E0070471C000020CC
:1034000010B503460020002B3BD01F4CC3EB4313E9
:1034100003EB4303A468012A04EB830306D0022ACA
:103420000FD0032A18D0042A2BD120E0012902D082
:10343000022903D025E0D3F8040122E0D3F83401B7
:103440001FE0012902D0022903D01AE0D3F80801B5
:1034500017E0D3F8380114E0012902D0022903D083
:103460000FE0D3F80C010CE0D3F83C0109E001298E
:1034700002D0022903D004E0D3F8100101E0D3F810
:103480004001C11710BD00001C00002010B503460C
:103490000020002B7AD03E4CC3EB431303EB4303D5
:1034A000A468082A04EB83036ED2DFE802F06D04FF
:1034B000132231404F5E012902D0022905D063E07A
:1034C000D3F8140120F060405EE0D3F8440120F00E
:1034D000604059E0012902D0022905D054E0D3F818
:1034E000180120F060404FE0D3F8480120F0604020
:1034F0004AE0012902D0022905D045E0D3F81C0199
:1035000020F0604040E0D3F84C0120F060403BE008
:10351000012902D0022905D036E0D3F8200120F09D
:10352000604031E0D3F8500120F060402CE00129E8
:1035300002D0022905D027E0D3F8240120F0604012
:1035400022E0D3F8540120F060401DE0012902D0B0
:10355000022905D018E0D3F8280120F0604013E0DC
:10356000D3F8580120F060400EE0012902D0022972
:1035700006D009E0D3F82C0120F0604004E005E01B
:10358000D3F85C0120F060400001001110BD000084
:103590001C000020C0EB401000EB40020A48094923
:1035A000806800EB820028308160C160002181705A
:1035B00001714170034A283202614261C170417158
:1035C00001707047980500201C000020044890F806
:1035D0007401002802D00120FFF77ABE7047000076
:1035E0003802002000F044B970B506460024254694
:1035F00001200A463146FFF749FF0022012E02D082
:10360000022E0BD014E01149C317D1F87811A1FB99
:10361000004502FB005001FB030509E00B49C317FD
:10362000D1F88011A1FB004502FB005001FB03050E
:103630000A20A4FB001305FB0030002204FB020556
:103640000C46240F44EA0514204670BD38020020C1
:103650002DE9F05F04460F46904699460125214624
:103660002846FFF7B1FE064621462846FFF792FEA0
:1036700002461C48012C2CD0A0F5BA71D1F890114B
:10368000036AA6FB0101A2FB03454FF00A0C0346A7
:10369000A3FB0C0B01FB0CB14FF0000A03FB0A115A
:1036A0000A23A4FB03CB05FB03B304FB0A356446E2
:1036B000C00B40EA4140640C44EAC534B9F1000F44
:1036C0000CD0B9F1010F02D13860C8F80040BDE854
:1036D000F09F0549D1F888118369D2E73E60C8F8A8
:1036E0000020F4E7AC030020380200202DE9F0416F
:1036F00004460D4601202A462146FFF781FE234954
:1037000004EB840201EB82024FF0204752F825308F
:103710004FF0C04C02EB8501BB4204D9604502D298
:10372000CE6B761CCE63634504D2B84202D9CB6B14
:103730005B1ECB6342F82500C96B00252818694140
:10374000012C02D0022C0BD014E0114A0346D2F80F
:103750007C21A2FB030405FB034302FB013109E0CA
:103760000B4A0346D2F88421A2FB030405FB034362
:1037700002FB01310A22A0FB025401FB024100239B
:1037800000FB03110846BDE8F08100002005002081
:1037900038020020C0EB4010044A00EB400002EB6E
:1037A000800080F8241000207047000038020020BC
:1037B00030B5039D094C012808D0022805D104F535
:1037C000C074216062602361656130BD04F5BC7422
:1037D000216062602361656130BD00003802002015
:1037E00010B5022801D2FFF729FB002010BD000010
:1037F00010B5074900F00F0281F87421C0F30310DF
:1038000081F875010846FFF74FFB002010BD00004E
:103810003802002000F037B870B501240C4D0D4E71
:10382000C4EB441000EB400015F8201051B1611EAC
:10383000C1EBC10105EB800006EB810140301C2289
:10384000FCF792FC641CE4B2022CE9D370BD0000CA
:1038500038020020AC670008044890F87401002882
:1038600002D00120FFF778BD704700003802002029
:1038700038B500240094002803D000916946FFF772
:1038800093FB204638BD7CB5044600250195002CED
:1038900006D001910120009001A92046FFF73CFCD1
:1038A000C0B27CBD0907090E002806DA00F00F003F
:1038B00000F1E02080F8141D704700F1E02080F84E
:1038C00000147047010901EB8101490000F00F006D
:1038D0000844C0B2704770B50546FCF71FFE0446A9
:1038E0004FF47A7606E0FCF719FE001BB04201D9CE
:1038F000032070BD286840688006F4D528684168B8
:1039000041F010014160002070BD70B50546286887
:10391000416821F010014160FCF700FE04464FF4BD
:103920007A7606E0FCF7FAFD001BB04201D90320CD
:1039300070BD286840688006F4D5002070BD00681E
:10394000016A406A80B240EA0140704700688169BC
:1039500089B2C26993B2826992B2914203D0C069BE
:1039600062F31F40704743EA01407047F0B500F52D
:10397000FA606427C1EBC1030925BE00072403EBED
:103980000113032912D2B3FBF5F111440144401E87
:10399000B0FBF7F201EB9001B0FBF6F0891A084496
:1039A000001DB0FBF4F104FB110010E0B3FBF5F1D6
:1039B0001144B0FBF7F2014401EB9001B0FBF6F0CB
:1039C000891A0844801CB0FBF4F104FB1100C0B25A
:1039D000F0BD70B505460E4600242846FFF77BFF74
:1039E00008B101240AE02968300C08622968B0B2E5
:1039F00048622846FFF789FF00B10124204670BDC8
:103A000070B505460E4600242846FFF764FF08B14E
:103A100001240AE02968300C88612968B0B2C861C5
:103A20002846FFF772FF00B10124204670BD0A68E6
:103A300042624A688262D1E902231A43D1E9043121
:103A40000B43C16A1A4321F0F7010A43C262002006
:103A500070470069C0B27047006800F0030070470B
:103A600008B50348084400900098006808BD0000AD
:103A7000148001400FB4DDE901121143DDE9032395
:103A80001A431143059A1143069A1143426847F6B7
:103A9000FF639A4311434160002004B07047032143
:103AA000016000207047D0F8800070470A6882608B
:103AB000D1E901231A43D1E903310B43C1681A4309
:103AC0006FF30B010A43C260002070470968C0F819
:103AD000801000207047024600204FF480311368A8
:103AE0005A6BC2F3C01203E05A6BC2F3C012491EF4
:103AF00009B1002AF8D019B140F2FF51996370471B
:103B00000320704770B504460E4600252068426BBE
:103B100012F0450FFBD0416B490704D50321042265
:103B20008263084670BD416BC90703D001218163E0
:103B3000084670BDFFF78DFFB04201D0102070BD68
:103B4000216840F2FF50886300212068FFF788FF5A
:103B50002949084201D1284670BD002801DA1C20FD
:103B600070BD410001D5092070BD810001D50A203A
:103B700070BDC10001D50B2070BD010101D50C2025
:103B800070BD410101D50D2070BDC10101D50E20D0
:103B900070BD010201D50F2070BD410201D510207A
:103BA00070BD810201D5112070BDC10201D5122066
:103BB00070BD010301D5132070BD410301D5142050
:103BC00070BD810301D5152070BDC10301D516203C
:103BD00070BD010401D5172070BD410401D5182026
:103BE00070BD810401D5192070BD000701D51A20D0
:103BF00070BD284670BD000008E0FFFD01460020B2
:103C000009684A6B12F0450FFBD04A6B520703D587
:103C1000032004228A6370474A6BD20702D0012036
:103C20008863704740F2FF528A6370470146002064
:103C300009684A6B12F0450FFBD04A6B520703D557
:103C4000032004228A63704740F2FF528A63704760
:103C50002DE9F04104460F46154600262068436BC7
:103C600013F0450FFBD0416B490705D50321042212
:103C700082630846BDE8F081416BC90703D001218A
:103C800081630846F6E7FFF7E4FEB84201D0102052
:103C9000F0E7216840F2FF50886300212068FFF7B9
:103CA000DFFE10F4604F03D0810405D51320E1E757
:103CB000000C28803046DDE7410401D51020D9E70B
:103CC000000401D50F20D5E73046D3E7024629206E
:103CD0004FF480311268536B13F0450307D0012372
:103CE00005E0536B13F0450300D00123491E0BB9C7
:103CF0000029F6D1536BC3F3800301B11BB103203C
:103D0000042191637047516B4906FBD50020402187
:103D10009163704708B500210091694600F003FAED
:103D200008B1FF2008BD0098C0F3432008BD70B55E
:103D300086B00446142101A8FCF72FFA00250120C3
:103D400000902068FFF788FEB8B1206AC0260428DA
:103D500029D000200190022102910396049048028C
:103D6000059001A92068FFF7A1FE2046FFF746FF56
:103D70000546280003D006B070BD2520FBE70021D2
:103D80002068FFF76DFEA06304212068FFF768FE3E
:103D9000E06308212068FFF763FE20640C2120689F
:103DA000FFF75EFE6064206A28B1012803D0062870
:103DB00001D0022810D1032002904020039001A9D5
:103DC0002068FFF773FE6A4603212046FFF740FF95
:103DD0000546280000D0CEE7206A042826D0BDF88A
:103DE000000060620004019009200290039601A97E
:103DF0002068FFF75BFE2046FFF700FF054628001E
:103E000000D0B8E700212068FFF72AFEA062042155
:103E10002068FFF725FEE06208212068FFF720FEFA
:103E200020630C212068FFF71BFE60632846A2E791
:103E300070B586B004460D46142101A8FCF7ADF913
:103E4000002600200090A18C090401910D2102910F
:103E50004021039104900801059001A92068FFF713
:103E600025FE2068426B12F0450FFBD0416B4907DD
:103E700005D5032104228263084606B070BD416B5C
:103E8000C90703D0012181630846F6E7FFF7E1FD8A
:103E90000D2801D01020F0E7216840F2FF50886320
:103EA00000212068FFF7DCFD00900098C0F343205C
:103EB000287033490098084201D13046DDE7009868
:103EC000002801DA1C20D8E70098400001D509201D
:103ED000D3E70098800001D50A20CEE70098C00003
:103EE00001D50B20C9E70098000101D50C20C4E7DB
:103EF0000098400101D50D20BFE70098C00101D511
:103F00000E20BAE70098000201D50F20B5E700980F
:103F1000400201D51020B0E70098800201D51120A1
:103F2000ABE70098C00201D51220A6E70098000375
:103F300001D51320A1E70098400301D514209CE788
:103F40000098800301D5152097E70098C00301D59C
:103F5000162092E70098000401D517208DE70098FD
:103F6000400401D5182088E70098800401D5192065
:103F700083E70098000701D51A207EE730467CE7EA
:103F800008E0FFFD2DE9F04F87B00446142102A898
:103F9000FCF703F94FF00009CDF804900027002545
:103FA0000026A8462068416821F48071416020689D
:103FB000FFF775FD0120FCF78BF92068416841F49B
:103FC00080714160CDF80890CDF80C90CDF810903C
:103FD000CDF814904FF48060069002A92068FFF796
:103FE00065FD2046FFF777FD01909DF8040020B1A4
:103FF0009DF8040007B0BDE8F08F4FF4D570029033
:10400000082003904FF0400ACDF810A002A92068C4
:10401000FFF74CFD2046FFF759FE01909DF8040084
:1040200018B9012020624FF08048CDF80890372061
:10403000039002A92068FFF739FD37212046FFF7DA
:1040400061FD01909DF80400A8BB4FF6FF7B3AE0AC
:10405000CDF8089037200390CDF810A0CDF814903B
:104060004FF48066069602A92068FFF71FFD3721EE
:104070002046FFF747FD01909DF8040010B19DF820
:104080000400B7E7184848EA00000290292003908E
:10409000CDF810A0CDF81490069602A92068FFF77D
:1040A00005FD2046FFF7C2FD01909DF8040018B100
:1040B0009DF804009EE714E000212068FFF7D0FC83
:1040C0000746FE0F6D1C0EB95D45C1D35D4504D397
:1040D0001B2001909DF804008CE7780001D5022098
:1040E00020629DF8040085E70000108070B586B05E
:1040F000064614461D46142101A8FCF74EF801940B
:104100000720029040200390002004904FF480602C
:10411000059001A93068FFF7C9FC07213046FFF779
:10412000F1FC06B070BD70B586B005460E46142190
:1041300001A8FCF732F8C6B1A88C000401900D204C
:10414000029040200390002004904FF4806005907E
:1041500001A92868FFF7AAFC0D212846FFF7D2FC29
:10416000044624B1204606B070BD2620FBE700219E
:104170002868FFF775FC30602046F4E710B5064C60
:1041800001202070FCF748F818B9207820F00100D1
:104190002070207810BD00002800002010B596B0D7
:1041A00014460120114A1278D20702D0032016B01B
:1041B00010BD49B1012909D04FF40072022910D075
:1041C000032911D00420F2E70020F0E76846FCF74D
:1041D00017F8DDE91210C20542EA512020600020E4
:1041E000E5E722800020E2E72260E0E728000020E7
:1041F0001CB500244FF40070CDE9000352020023E7
:104200000846FCF721F800B1012420461CBD00003F
:1042100010B5064C01202070FBF7F8FF18B9207884
:1042200020F001002070207810BD00002800002040
:104230001CB500244FF40070CDE9000352020023A6
:104240000846FCF711F800B1012420461CBD00000F
:1042500003B583B00A21009100EB400101EBC000DF
:104260000549012301EBC00002AA04A9FDF7FEFDE8
:104270009DF8080005B000BDE80500202DE9F05FBD
:1042800004460F4693461D46FCF748F906464FF094
:1042900000084FF4005A4FF00109BBF1000F26D07F
:1042A00050E0681C23D025B1FCF738F9801BA842E8
:1042B0001DD92068416821F0E00141602068016853
:1042C00021F040010160A06A504509D120680168D1
:1042D00021F4005101602068016841F4005101603F
:1042E00084F8519084F850800320BDE8F09F206846
:1042F000806837EA0000D4D129E0681C22D025B1BB
:10430000FCF70CF9801BA8421CD92068416821F0F9
:10431000E00141602068016821F040010160A06A6D
:10432000504509D12068016821F4005101602068DE
:10433000016841F40051016084F8519084F8508084
:104340000320D2E72068806837EA0000D5D000203B
:10435000CBE710B5FCF7E8F8BDE81040FDF727BF44
:1043600070B596B009200C904FF480300D90002469
:104370000E940125109512950226139614904FF471
:10438000E01015900CA8FCF785FC0F20079008960C
:104390000994A8020A900B94022107A8FCF790FA4E
:1043A00001956802029001A8FCF7F4F9FCF7E4FB20
:1043B0004FF47A71B0FBF1F0FDF7E5FE0420FDF754
:1043C000D3FE00221146501EFCF71AF916B070BD3C
:1043D0000D48016841F00101016041680B4A11403C
:1043E000416001680A4A11400160016821F480219E
:1043F0000160416821F4FE0141604FF41F018160BA
:104400000449C00308607047001002400000FFF834
:10441000FFFFF6FE08ED00E00148FEF752B800008D
:10442000040100202DE9F04102681B4D1B4E1C4F7A
:10443000DFF870C01C4B4FF08048A84209D098426A
:1044400007D0404505D0B04203D0B84201D0604506
:1044500003D122F070044A682243A84209D098424E
:1044600007D0404505D0B04203D0B84201D06045E6
:1044700003D122F44074CA68224302608A68C2628F
:104480000A688262A84201D0984201D10969016399
:1044900001214161BDE8F081002C01400004004091
:1044A00000080040000C00400034014010B5846852
:1044B00024F47F4442EA03220A432243826010BD6F
:1044C000826822F070020A4342F00701816070475F
:1044D00010B5036A046A24F001040462846924F0BC
:1044E000F00444EA021423F00A020A4384610262DF
:1044F00010BD000070B5046A24F0010404628469F0
:10450000056A124EB0420ED0114EB0420BD0B0F13F
:10451000804F08D00F4EB04205D00F4EB04202D0AF
:104520000E4EB04203D124F00304144301E044F0E2
:10453000010424F0F0041A0744EA126225F00A0389
:1045400001F00A0119438261016270BD002C014033
:10455000003401400004004000080040000C00400E
:1045600010B5036A23F0100303628469036A24F41C
:10457000704444EA023223F0A00343EA011182614D
:10458000016210BD30B5046A24F01004046285692C
:10459000046A25F4407545EA022222F470454FF67C
:1045A000FF7202EA03322A4324F0A003A02404EAA3
:1045B000011119438261016230BD30B5046A24F4EF
:1045C00080740462C469056A24F00304144324F06F
:1045D000F0041A0744EA126225F420634FF42064C1
:1045E00004EA01211943C261016230BD30B5046A99
:1045F00024F480540462C569046A25F4407545EAD0
:10460000022222F470454FF6FF7202EA03322A4377
:1046100024F420434FF4204404EA01311943C261D9
:10462000016230BD10B50D4842F210710068B0FB58
:10463000F1F10B48491E41600B480A4A026040F202
:10464000CF72C26041600021016181604161FDF76C
:10465000DCFD002801D0FBF717FE10BD180000207C
:104660000000002000040040040100200148FDF784
:10467000E9BF00004001002010B50168CA6822F0BF
:104680004002CA6090F83910322906D0012180F822
:104690003910FEF726F9002010BD222180F83910CC
:1046A000F7E710B590F83910222903D0322901D04C
:1046B000022010BD8168B1F5805F11D0016919B386
:1046C0000168496801F07F03816A4A1C82620B70AD
:1046D000C18D491E0904090CC1851CD0002010BDE4
:1046E000816A02693AB102685268D2B20A80816A6C
:1046F000491C8162ECE702685268C2F308020A8032
:10470000816A891C8162E3E701684A68816A4B1CFF
:1047100083620A70DCE70168CA6822F02002CA607E
:1047200090F83910322910D00168CA6822F48072DA
:10473000CA6001684A6922F001024A61012180F8D9
:104740003910FEF761F8002010BD122180F83910F1
:10475000F7E700002DE9F041044620680169E268AE
:1047600021F4405111430161A1682069014360694E
:1047700001432068C26841F20C639A430A43C26055
:1047800020684169A26921F44071114341613349B4
:10479000206864253226884230D1FCF71DFA00EBF0
:1047A000C00101EB001061688900B0FBF1F0B0FBC3
:1047B000F5F7FCF711FA00EBC00101EB001061689E
:1047C0008900B0FBF1F8FCF707FA00EBC00101EB40
:1047D000001061688900B0FBF1F0B0FBF5F06FF0FC
:1047E0001801484308EB800006EB0010B0FBF5F021
:1047F000216867F31F108860BDE8F081FCF7D6F9E7
:1048000000EBC00101EB001061688900B0FBF1F022
:10481000B0FBF5F7FCF7CAF900EBC00101EB0010A3
:1048200061688900B0FBF1F8FCF7C0F900EBC0014A
:1048300001EB001061688900B0FBF1F0B0FBF5F00E
:104840006FF01801484308EB800006EB0010B0FB46
:10485000F5F0216867F31F108860CDE7003801404C
:1048600090F83910122903D0322901D00220704764
:104870008168B1F5805F0CD0016A4A1C026202684F
:1048800009785160C18C491E0904090CC18410D0FB
:1048900019E0016A02680988C1F3080151600169E1
:1048A00019B1016A491C0162ECE7016A891C0162C5
:1048B000E8E70168CA6822F08002CA600068C1683F
:1048C00041F04001C160002070472DE9F0470446E7
:1048D0000F4692461D46FBF721FE06464FF00008A4
:1048E0004FF00109BAF1000F23D04AE0681C20D034
:1048F00025B1FBF713FE801BA8421AD92068C168B6
:1049000021F08001C1602068C16821F02001C160F0
:104910002068C16821F48071C1602068416921F07C
:104920000101416184F8399084F838800320BDE8A2
:10493000F0872068006837EA0000D7D126E0681CBD
:104940001FD025B1FBF7EAFD801BA84219D92068CA
:10495000C16821F08001C1602068C16821F0200198
:10496000C1602068C16821F48071C160206841691C
:1049700021F00101416184F8399084F838800320E6
:10498000D5E72068006837EA0000D8D00020CEE7DD
:104990000FB4054B10B503A9044A029800F02CF897
:1049A00010BC5DF814FB00009D5F0008340000207F
:1049B0000FB4084B10B504A902AA039800F01CF824
:1049C000044602A9002000F0B8F9204610BC5DF8AA
:1049D00014FB00003B4D000802E008C8121F08C18C
:1049E000002AFAD170477047002001E001C1121F70
:1049F000002AFBD1704700002DE9FF4F8BB088469D
:104A00000546002606E025280BD0DDE90D1290476B
:104A10006D1C761C28780028F5D10FB03046BDE813
:104A2000F08F0024A146A2460122AE4900E00443D3
:104A300015F8013F203B02FA03F00842F7D128782D
:104A40002A2810D06FF02F022878A0F13001092910
:104A500015D809EB890102EB410144F0020400EB97
:104A600001096D1CF0E758F8041B5FEA010903D542
:104A700044F40054C9F1000944F002046D1C287884
:104A80002E2817D115F8010F44F004042A280ED05F
:104A90006FF02F022878A0F1300109290AD80AEB1B
:104AA0008A0102EB410100EB010A6D1CF2E758F8A4
:104AB00004AB6D1C28786C280FD006DC4C2817D06E
:104AC00068280DD06A2814D104E0742810D07A2800
:104AD0000FD10DE044F400140AE044F4801401E026
:104AE00044F440146978814202D104F580146D1CAD
:104AF0006D1C2878692865D006DC00288DD06328D5
:104B000027D0642806D15DE06E2808D073282AD00B
:104B1000752877D0DDE90D129047761CE0E0C4F3EC
:104B20000250022809D003280DD0D8F8001004281C
:104B30000DD00E6008F10408D2E0D8F80010F2178A
:104B4000C1E90062F6E7D8F800100E80F2E70E70B7
:104B5000F0E718F8041B8DF8001000208DF8010014
:104B6000EB46012003E058F804BB4FF0FF3061072B
:104B70004FF0000701D40AE07F1C57450DDA874249
:104B8000FADB1BF807100029F6D106E07F1C8742EC
:104B9000FCDB1BF807100029F8D1DDE90D23A9EB98
:104BA00007008146214600F0B1F83044C61904E000
:104BB000DDE90D121BF8010B90477F1EF8D221464C
:104BC000484688E058F8040BC4F302514FF00A0B32
:104BD000032900D100B2042900D140B2002802DA32
:104BE00040422D2102E0210505D52B218DF824100E
:104BF000012104E006E0E10710D02021F6E708AF2C
:104C0000089113E058F8040BC4F302514FF00A0B5B
:104C1000032900D180B2042900D1C0B20021EEE7FF
:104C20005946FBF7C5FA303107F8011D0028F7D1C6
:104C3000ADEB070000F1200B600702D524F48034AF
:104C400001E04FF0010ADA4502DDAAEB0B0000E0BB
:104C50000020824600EB0B0108980144A9EB0100FB
:104C60000A90E00306D4DDE90D2321460A9800F0FE
:104C70004DF806444FF0000908E009A911F80900B1
:104C8000DDE90D12904709F10109761C0899894563
:104C9000F3DBE0030CD5DDE90D2321460A9800F093
:104CA00035F8064404E0DDE90D1230209047761C0B
:104CB000BAF10001AAF1010AF5DC05E0DDE90D1207
:104CC00017F8010B9047761CBBF10001ABF1010B0B
:104CD000F4DC0A982146DDE90D2300F005F80644CE
:104CE0006D1C97E6092801002DE9F04104460025D6
:104CF0001E461746880404D405E039462020B047F4
:104D00006D1C641EF9D52846BDE8F0812DE9F041FF
:104D1000044600251E469046C80301D5302700E012
:104D20002027880404D505E041463846B0476D1C6D
:104D3000641EF9D52846BDE8F0810A68531C0B6053
:104D40001070704710B50446002084F80402401E1D
:104D5000C4F82C02204601F067FB08B1032010BD07
:104D600094F8FE0194F8FF1140EA0120A0F52A41D1
:104D7000553901D0022010BD14F8360FE178627861
:104D800040EA0161A078363C000440EA0220014379
:104D90000B48B0EB012F01D1002010BD14F8521FB9
:104DA000E278637841EA0261A278120442EA0322BF
:104DB0001143B0EB012F01D1002010BD012010BD27
:104DC0000046415400E0401C02780AB18A42FAD100
:104DD00000787047F0B500221546194E17E002EB37
:104DE000420356F8234084B1D0F80072BC420DD182
:104DF00006EB8303D0F808725C68BC4206D11B89BD
:104E0000B0F80642A34204D000E00125521C022A59
:104E1000E5D3022A01D089B906E01DB9022901D0E3
:104E20001220F0BD0020F0BD02EB420006EB800036
:104E30004089B0F5807F01D00020F0BD1020F0BD8A
:104E4000BC06002030B50021064B002401EB4102D6
:104E500053F82250854201D143F82240491C0229CF
:104E6000F4D330BDBC060020D0F82422121DD0F8A7
:104E70000002490A90F80202B1FBF0F002CA21B127
:104E8000884204D211680844704700207047401AD5
:104E9000121DF3E7891ED0F81422921E8A4201D80F
:104EA00000207047D0F8282290F8020201FB002071
:104EB00070472DE9F04106460F46002F08D03946CD
:104EC000304601F077F802280BD20120BDE8F081CE
:104ED000D6F80C521DB1D6F81402A84208D8012504
:104EE00006E0411CF2D0D6F814128142EED83D46BD
:104EF0002C46641CD6F81402A04204D80224022DC9
:104F000001D20020E2E72146304601F053F838B1E3
:104F1000411CDBD00128D9D0AC42EAD10020D5E732
:104F20006FF070422146304601F09AFA28B927B155
:104F300022463946304601F093FA20B1012812D0BA
:104F400001242046C2E7C6F80C42D6F81002411CE4
:104F5000F7D0401EC6F8100296F8050240F0010096
:104F600086F80502EDE74FF0FF34EAE72DE9F05F40
:104F70008B46DBF8007000E07F1C39782F29FBD0CE
:104F80005C29F9D0D0F818A20B222021504601F05C
:104F900043FA00252E46A8464FF00809404608F17E
:104FA00001083C5C202C0BD92F2C09D05C2C07D09D
:104FB0002E2C01D04E4516D3B9F1080F0AD107E0C7
:104FC00007EB0800CBF80000202C2FD804202EE09F
:104FD0002E2C02D00620BDE8F09F08264FF00B09CA
:104FE000A806050EDAE7802C05D345F00305204816
:104FF000204410F8804C1FA02146FFF7E3FE08B1C3
:105000000620E8E7A4F14100192802D845F002057E
:1050100007E0A4F16100192803D845F00105203C00
:10502000E4B23046761C0AF80040B7E7002026B10B
:105030009AF80010E52902D004E00620CBE705210C
:105040008AF80010B9F1080F01D1A9060D0E05F07C
:105050000301012901D140F01000C5F381010129AC
:1050600001D140F008008AF80B000020B3E70000EF
:10507000DC670008222A2B2C3A3B3C3D3E3F5B5D1F
:105080007C7F0000401E022813D20B4B00EB400235
:1050900003EB82014889B0F5807F00D1002008B180
:1050A000401E80B2488110B9002043F82200002041
:1050B0007047022070470000BC06002070B505460E
:1050C0000E460021284600F004F9A0B90024D5F8C6
:1050D0001012D5F8000201F0A7F960B9D5F8141242
:1050E0000978E5290BD051B100240121284600F0B0
:1050F00032F80028EBD0042800D1072070BD641CD2
:10510000B442F8D0F1E770B504460021204600F023
:10511000E0F800281CD1D4F81012D4F8000201F0F5
:1051200083F905469DB9D4F81402017889B1C17A92
:10513000090705D40B22D4F8181201F057F930B141
:105140000021204600F007F80546002DE3D0284650
:1051500070BD0425FBE72DE9F04104460E46B4F886
:1051600006727F1C3804000C05D0D4F8100210B170
:10517000390703D080E00420BDE8F081401CC4F86A
:105180001002D4F80C1241B1D4F8000290F80222B7
:10519000521E12EA171F08D06EE0D4F80002B0F8D1
:1051A0000802B84268D80420E6E700F003FF05468D
:1051B000012D01D80220DFE7681C18D0D4F80002C6
:1051C000D0F81412A9424ED89EB1D4F80C12FFF7B1
:1051D00070FE054628000ED0012D0ED0681C0ED0A2
:1051E000D4F8000201F05CFA58B10120C4E70120B4
:1051F000C2E70420C0E70720BEE70220BCE7012089
:10520000BAE74FF400720021D4F8000201F004F96B
:105210002946D4F80002FFF73DFED4F80012C1F889
:105220002C0200264FF0010810E080F80482D4F828
:10523000000201F035FA08B101209DE7D4F8000220
:10524000D0F82C12491CC0F82C12761CD4F800029D
:1052500090F80212B142E8D8D4F80012D1F82C121A
:10526000891BC0F82C12C4F80C522946D4F800024D
:10527000FFF710FEC4F8100204F50074E780206800
:1052800007F00F0100EB41106061002074E770B57A
:10529000044601212046FFF711FF0546BDB9D4F8A9
:1052A0001012D4F8000201F0BFF805467DB904F5EC
:1052B000007420220021606901F0AEF8D4E90501F4
:1052C0000B2201F0A0F82168012081F80402284691
:1052D00070BD70B504460D46A4F80652D4F80832E5
:1052E000012B05D0D4F80002D0F81412994201D84D
:1052F000022070BD2BB990F80012032901D1D0F81B
:1053000024321BB190F8020206011DE0B0F8081229
:10531000A94201D8022070BDD0F824021BE0194632
:10532000D4F8000200F046FE0346581C09D0022BB8
:1053300005D3D4F80002D0F81402984203D8022012
:1053400070BD012070BDAD1BB542E8D21946D4F83E
:105350000002FFF79FFDC4F80C3260B104F5007441
:1053600000EB15102061206805F00F0100EB4110E3
:105370006061002070BD022070BD000010B50021EA
:10538000084A135C002B0AD101211154111802EBB9
:105390008000097A4068026808469047014608463E
:1053A00010BD0000D406002030B4054B1C1803EBE0
:1053B0008000247A40680369204630BC184700000A
:1053C000D406002030B4054C251804EB80002D7A5B
:1053D000406884682846A44630BC6047D406002054
:1053E00004490A1801EB8000127A406841681046AF
:1053F00008470000D406002030B4054C251804EB03
:1054000080002D7A4068C4682846A44630BC6047B6
:10541000D40600200020084900E0401C022805D2E4
:1054200000EB400251F82220002AF6D1022801D0D8
:105430000120704700207047BC06002010B50446CC
:10544000204600F08FFA00280DD1204601F059F9CE
:10545000002808D1D4F82802FFF714FE002802D152
:105460000021C4F8001210BD2DE9F84F04460D4686
:10547000204601F046F90090009810B10098BDE870
:10548000F88F94F807020028F9D1D4F824724FF06D
:10549000010A002F68D0681C35D0D4F80C02A8424D
:1054A00000D20546C4F80852002D5BD0691E204684
:1054B000FFF7DAFCC4F81402D4F8002201461046C3
:1054C000FFF7E8FCA8B3D4F800126D1E91F8022291
:1054D000521E02EA55221518B4F80802C005E4D09D
:1054E000D4F81822AA42E0D094F8060240064DD51E
:1054F00091F8010201232146FFF77EFF98B384F85B
:1055000007A20120BBE757F804BB0226D4F810120B
:1055100009B389460025B61C88466D1CD4F80002E4
:1055200000F048FD0146012904D8022084F8070252
:10553000A5E721E0481C18D008F101084145EBD04F
:105540005E4502D820C747F8049BD4F80002D0F883
:1055500014028842DDD8D4F8240206605E4508D8DB
:1055600000203860DDE00BE021E084F807A2012094
:1055700085E711200090D4E0022084F807027EE73E
:1055800094F8060220F0400084F80602D4F80002E5
:1055900001232A4690F801022146FFF713FF18B1B4
:1055A00084F807A201206AE7C4F81852B9E0D4F8D9
:1055B0000C02A84204D294F80612890700D40546CA
:1055C000D4F808020027C4F8087235B3D4F80022D2
:1055D00092F802124E0278B1691E401EB1FBF6F13C
:1055E000B0FBF6F3994207D3711E8843C4F8080252
:1055F0002D1AD4F814120FE0D4F8101251B900216A
:105600001046FFF756FC0146012907D0481C09D077
:10561000C4F81012C4F8141299BB42E0022084F8B6
:1056200007022CE784F807A2012028E794F8060275
:10563000800707D5D4F80002FFF73BFC014631B9DB
:10564000354620E0D4F8000200F0B4FC0146481CC6
:105650000BD0012905D9D4F80002D0F814028842F1
:1056600007D8022084F8070209E784F807A201207E
:1056700005E7C4F81412D4F808023044C4F808024C
:10568000AD1BB542D2D8D4F808022844C4F80802A9
:10569000E80506D0D4F80002FFF7FCFBD0B100EB20
:1056A0005527B4F80802C0052ED0D4F81822BA4203
:1056B0002AD094F80602400616D5D4F80002012339
:1056C000214690F80102FFF797FE38B184F807A24F
:1056D0000120D4E6022084F80702D0E694F80602FE
:1056E00020F0400084F80602D4F8000201233A4674
:1056F00090F801022146FFF765FE18B184F807A271
:105700000120BCE6C4F8187204F5027003C8884290
:1057100007D9C4F80C0294F8060240F0200084F87F
:1057200006020098ABE600002DE9F74181B016466D
:1057300002980090684600F0E0FC0446002C03DA72
:105740000B2004B0BDE8F0810E4F57F824504FF005
:10575000000825B12846FFF775FB85F800820198FF
:10576000002801D080F8008247F8240001D0012EE3
:1057700001D00020E5E7002202A901A800F046FAC6
:10578000DFE70000300000202DE9F747ADF50B7D85
:105790000646002E0FD04FF00008C6F8008202F037
:1057A0001F0727F001028CA983A800F02FFA0446F6
:1057B000200005D0B4E009200DF50E7DBDE8F0878E
:1057C000CDF824D203A88C9900F0ACFB0446889D48
:1057D0005CB91DB1780803D0012102E0062404E081
:1057E000002103A8FFF7F6FA044617F01C0F53D068
:1057F00074B1042C08D1FFF70DFE20B103A8FFF708
:1058000046FD044600E0122447F00807889D08E0A2
:10581000E87A10F0110F01D0072402E0780700D5D4
:105820000824C4BB380742D500F030FCA873010A35
:10583000E973010C2974000E687485F80B8085F8F3
:105840001C8085F81D8085F81E8085F81F802946FC
:10585000839800F0C9FC81460021284600F0BBFE79
:105860008399012081F80402B9F1000F1FD08398B9
:10587000D0F82CA24946839800F074FE044620001C
:1058800015D18398A9F10109C0F80C92514683986B
:1058900000F0CAFD04460AE04CB9E87AC10601D519
:1058A000042404E0B90702D5C00700D00724B4B926
:1058B000380701D547F020078398D0F82C02C6F8A6
:1058C0001C02C6F82052780801D0012100E0002116
:1058D00003A800F033FCC6F8280200B90224FCB982
:1058E00006F50076B77186F807802946839800F0A0
:1058F0007BFC3061287FE97F6A7F40EA0160A97FF5
:10590000090441EA02210843F060C6F80880C6F89D
:105910001880C6F8248083983060B0F80602B08002
:10592000204649E733B5ADF50B7D0D4600228BA926
:1059300083A800F06BF9044684B9CDF824D203A8FB
:105940008B9900F0EFFA044644B9889828B12DB13C
:10595000294603A800F09CFB00E006240DF50D7D10
:10596000204630BD70B50446204600F0CAFE00282F
:1059700011D194F806128A060DD5480612D5D4F82E
:1059800000020123214690F80102D4F81822FFF703
:1059900033FD08B1012070BD94F8060220F04000EC
:1059A00084F80602D4F81C12D4F8000200F03CFD82
:1059B0000028F0D104F50074256AE87A40F0200050
:1059C000E872207B2877A089000A6877E068000CDD
:1059D000A877E068000EE8772846216900F0FBFD13
:1059E00000F054FBA875010AE975010C2976000E38
:1059F00068760020A874E874A07920F02000A071D7
:105A00002168012081F804022068BDE8704000F0A0
:105A1000EABD2DE9F05F04460F4616469846002081
:105A2000C8F80000204600F06CFE002808D194F869
:105A30000702002804D194F80602800702D4072048
:105A4000BDE8F09FD4F80802811900D300264FF07A
:105A50000109C9E0D4F80812C80570D1D4F80022B1
:105A600092F80202401E00EA512000F0FF0ABAF14B
:105A7000000F2AD131B1D4F8240258B12046FFF7E3
:105A8000F3F90CE0D4F8100248B900211046FFF7F2
:105A900010FA04E01046D4F81412FFF70AFA0028AE
:105AA00068D0012807D0411C09D0C4F81402D4F8EA
:105AB000101241B109E0022084F80702C0E784F81F
:105AC00007920120BCE7C4F8100294F806024006D1
:105AD00014D5D4F800020123214690F80102D4F82D
